S02B00007673636F64652D6275696C642F626C696E6B5F626172656D6574616C5F646576426F6172642E73336E
S3150800000000100020C9050008074300080743000838
S31508000010074300080743000807430008074300088A
S31508000020074300080743000807430008074300087A
S31508000030074300080743000807430008074300086A
S31508000040074300080743000807430008074300085A
S31508000050074300080743000807430008074300084A
S31508000060074300080743000807430008074300083A
S31508000070074300080743000807430008074300082A
S31508000080074300080743000807430008074300081A
S31508000090074300080743000807430008074300080A
S315080000A00743000807430008910B00086D0B00087A
S315080000B007430008074300080743000807430008EA
S315080000C007430008074300080743000807430008DA
S315080000D007430008074300080743000807430008CA
S315080000E007430008074300080743000807430008BA
S315080000F0074300085545000807430008074300085A
S315080001000743000807430008074300080743000899
S315080001100743000807430008074300080743000889
S315080001200743000807430008074300080743000879
S315080001300743000807430008074300080743000869
S315080001400743000807430008074300080743000859
S3150800015007430008074300080B4600080743000842
S315080001600743000807430008074300080743000839
S31508000170013800D0FCE7704710B5054C237833B931
S31508000180044B13B1044800E000BF0123237010BDDF
S31508000190A010002000000000684A000808B5034BBC
S315080001A01BB10349034800E000BF08BD000000007A
S315080001B0A4100020684A0008A3F5803A704700BFDB
S315080001C0174B002B08BF134B9D46FFF7F5FF002181
S315080001D08B460F461348144A121A04F057FA0E4B68
S315080001E0002B00D098470D4B002B00D098470020D5
S315080001F0002104000D000D48002802D00C4800E03C
S3150800020000BF03F0F3FF2000290004F033FA03F0DF
S31508000210D9FF00BF00000800000000000000000031
S3150800022000100020A01000209C13002000000000F1
S315080002300000000010B5274C01F036FA01F056FC14
S31508000240236F23F0070343F00303236704F039F908
S31508000250214B00209B6ADB015EBF4FF480321F4BA7
S315080002609A62D4F8203123F0070343F00203C4F856
S315080002702031D4F8283123F0070343F00203C4F8E9
S315080002802831D4F8403123F0030343F00203C4F8BD
S315080002904031D4F8603123F0030343F00203C4F875
S315080002A06031D4F8403223F0030343F00203C4F864
S315080002B04032D4F8003223F0070343F00203C4F8AF
S315080002C00032D4F8083223F0070343F00203C4F8D7
S315080002D0083210BD008000500040005A0060005AE5
S315080002E04FF480302049214A4B6E10B55066486E4F
S315080002F04FF000414AF6CD3451661D4903F4803368
S315080003004A6C0C6402F001024C6BE407FCD401242D
S3150800031018494C60A1F500510C6BE407FCD50AB1ED
S31508000320154A0A640028A2BF4FF00041134A5166D5
S315080003301BB94FF48032114B5A6602F06BF903F081
S31508000340D5FF02F0F1F802F051F904F001F902F0D4
S3150800035013F9FFF76FFF02F0FDF803F0BCFFBDE8E5
S31508000360104002F039BB00BF0080005000900050DA
S3150800037000400950006009503254FFFF00A00050A9
S3150800038008B5044803F0CCFFBDE80840024803F06E
S31508000390C7BF00BFB4460008CC46000808B50448E5
S315080003A004F042F8BDE80840024804F03DB800BF32
S315080003B0E4460008FC4600080122014B1A70704703
S315080003C0821300200122014B1A7070478313002004
S315080003D010B5084C237823B1074804F028F8002301
S315080003E02370064C237823B1054804F020F800232F
S315080003F0237010BD82130020E446000883130020F2
S31508000400FC46000808B5074B074A1968074803F071
S315080004104CFF074B074A19680748BDE8084003F030
S3150800042044BF00BF00100020B9030008BC1000201C
S3150800043004100020C5030008DC10002010B504468F
S3150800044003F073FF012817D10C4B9C4214D10C4CB6
S315080004500C4802F059FF206803F08AFC00220A4B78
S3150800046003F01AFA03F0FEFC084A20600146BDE8CC
S315080004701040044803F019BF10BD00BFB446000879
S3150800048000100020BC1000200000E03FB90300085F
S315080004901022024BC3F8A020704700BF00D00350BB
S315080004A01022024BC3F8A020704700BF00E003509B
S315080004B070B5404D88B001AC0FCD0FC495E8070064
S315080004C084E80700012401213A2000F045FE3A4E4F
S315080004D00121292000F040FE384B304601A903933C
S315080004E08DF8124001F0F2FE23462146042202202E
S315080004F001F0A6FD022122460846002301F0A0FDD0
S31508000500234604220321022001F09AFD04222346F1
S315080005101146022001F094FD294D2A4B4FF44870EC
S31508000520C5F8AC374FF00213C5F8A837A3F58033E2
S31508000530C5F8B0371C23C5F8983703F081F914209D
S31508000540FFF7AEFF03F07CF92320FFF7A1FF03F0C6
S3150800055077F9B9213046FFF7A3FF03F0EFFFFFF75E
S3150800056097FF002321461A46022001F069FD002361
S3150800057002211A46084601F063FD2346002203219C
S31508000580022001F05DFD234600220421022001F02D
S3150800059057FD304601F06EFE00212920C5F8AC173C
S315080005A0C5F8A817C5F8B017C5F8981700F0D4FD10
S315080005B008B070BD1447000800C0055000127A0044
S315080005C000C003500200030008B500F02DF8124BD6
S315080005D012498B4212D30020114B12498B4218D371
S315080005E0FFF7EEFD186850F82240586840F8224098
S315080005F0013298688242F5D30C33EAE70022F8E71D
S315080006001C6844F8220001325C68A242F8D3083319
S31508000610E4E70022F8E700BF704A00087C4A0008B1
S315080006207C4A00087C4A00084FF480414FF0FF30AE
S31508000630114B124A10B59A60D3F8882042F470021A
S31508000640C3F888200E4A91660E4901F500521066D5
S315080006500D4850660220C3F8D000BFF34F8FBFF392
S315080006606F8F01244FF440330848C0F88041D360A7
S3150800067004600B6110BD00BF00ED00E0000000083B
S3150800068000900050008000447FFF7F0100E100E0F9
S31508000690014B1868704700BF0C100020084B1B6FF1
S315080006A003F00703022B04D0032B05D0012B05D03A
S315080006B0FEE7044B18687047034BFBE7034870478F
S315080006C0008000500C10002010100020002D310171
S315080006D008B5FFF7E3FF054B1B6FC3F3033301337D
S315080006E0B0FBF3F0024B186008BD00BF0080005055
S315080006F0081000200048704700B4C404014B18686D
S31508000700704700BF10100020054B1860054B1B6F83
S3150800071003F00703032B01D1FFF7DABF704700BFC9
S31508000720101000200080005000487047002D31014D
S315080007304FF0B4439868C0F304400C2822D8DFE889
S3150800074000F0092121212121071719211B1D1F004E
S315080007500F4870479B6803F04073B3F1807F13D04E
S31508000760B3F1007F12D00B4A002B08BF1046704722
S31508000770094870470948704709487047094870474B
S31508000780094870470020704708487047084870476E
S31508000790405DC60000093D000024F400C0EA2101BE
S315080007A080BA8C010048E801005A620280841E0063
S315080007B040420F00014B1868704700BF1410002014
S315080007C038B50D460446C0B1012819D0022819D0FB
S315080007D0032803D13F23EB40DB0704D440F2CF3193
S315080007E00A4803F099FD3020142310FB0434084B03
S315080007F0E058E84000F0010038BD40F2FF73EAE730
S315080008000F23E8E740F2FF33E5E700BF304700086B
S3150800081030C0035037B50468012105463A2000F078
S315080008209BFC002301226179207901F009FC61799A
S315080008302079FFF7C5FFB0FA80F35B092370A37927
S31508000840022B15D100F03CF92A460B49607900F0D5
S3150800085061F9FF28054603D15C21084803F05CFDD1
S315080008600123617920792A46CDE9003301F06CFB32
S31508000870002003B030BD00BF354300085D470008BF
S3150800088008B501213A2000F067FC03210123042260
S31508000890002001F0D5FB002003F04FFE0122214B7A
S315080008A04FF46070C3F8442400F082FC1E4B00F538
S315080008B0D520D3F8F02000F2FC4042F00102C3F83C
S315080008C0F020D3F8FC2042F08072C3F8FC20174AC7
S315080008D0A3F55D431A60164B0222B0FBF3F0154BE5
S315080008E001381861C3F8F0204FF48072C3F8042366
S315080008F04FF06043104A0020C3F8B02F0F4AC3F8E0
S31508000900802ED3F8002E42F48072C3F8002EFF2200
S3150800091083F82020D3F8002E22F48072C3F8002E24
S3150800092008BD00BF00D0035000ED00E0FF03004003
S31508000930F8590D00000004E055CEACC509000100C9
S3150800094038B50D460446B0B1012817D0022817D08D
S31508000950032803D13F23EB40DB0704D440F2FE31E2
S31508000960094803F0D9FC302001214443074B01FA1A
S3150800097005F51D5138BD40F2FF73ECE70F23EAE792
S3150800098040F2FF33E7E700BF3047000840E0035076
S3150800099038B50D460446B0B1012817D0022817D03D
S315080009A0032803D13F23EB40DB0704D440F22D4153
S315080009B0094803F0B1FC302001214443074B01FAF2
S315080009C005F51D5138BD40F2FF73ECE70F23EAE742
S315080009D040F2FF33E7E700BF3047000840D0035036
S315080009E038B504784578ACB1012C16D0022C16D04F
S315080009F0032C03D13F23EB40DB0704D44FF4896172
S31508000A00084803F089FC302301225C43064BAA40C0
S31508000A101A5138BD40F2FF73EDE70F23EBE740F2BA
S31508000A20FF33E8E73047000840F0035070B5057813
S31508000A3004464678E5B1012D1DD0022D1DD0032DA3
S31508000A4003D13F22F240D30704D44FF483610C4804
S31508000A5003F062FC1023302212FB0535094BEB58D4
S31508000A60F34003F00100A3780BB980F0010070BDD4
S31508000A7040F2FF72E6E70F22E4E740F2FF32E1E7D1
S31508000A803047000830C0035070B5044601250B4EA8
S31508000A9004B970BD94FAA4F0B0FA80F005FA00F330
S31508000AA006EB001224EA03045368002BF0D0117BEE
S31508000AB011B191689847EBE79847E9E7FC100020E1
S31508000AC008B51A2001F034F828B14FF08062074BB8
S31508000AD0C3F880211A601B2001F02AF828B14FF0CC
S31508000AE00062024BC3F880211A6008BD00E100E0ED
S31508000AF038B505460C4603F000FD0022044B03EB0F
S31508000B0005135C601A73BDE8384003F0FCBC00BFEF
S31508000B10FC100020F8B505460F46164603F0EDFC16
S31508000B20104B05F0FC02D3F824140023EC1804F04B
S31508000B300304144321FA04FC1CF0010F07D0013307
S31508000B40042BF3D1FF2403F0DEFC2046F8BDFF2C6E
S31508000B50F9D00122044B03EB0413C3E901761A7397
S31508000B60F1E700BF00C00350FC100020074BD3F884
S31508000B702404D3F8202403F50053104000F0553020
S31508000B8020F05020C3F82004FFF77EBF00C00350B2
S31508000B90074BD3F82404D3F8202403F50053104058
S31508000BA000F0AA3020F0A020C3F82004FFF76CBF9D
S31508000BB000C00350044BD3F88420D206FBD4D3F8E4
S31508000BC08400C0F3811070470040005038B51A4BB6
S31508000BD00546D3F820010C4600F00700062821D860
S31508000BE0DFE800F028040C1410181C00FFF750FD6D
S31508000BF0052305B1286004B1236038BDFFF77EFDE3
S31508000C000323F6E7FFF794FD0723F2E7FFF78CFDCA
S31508000C100223EEE7FFF73CFD0623EAE7FFF76EFD42
S31508000C200423E6E7054841F2252103F075FB002376
S31508000C301846DEE70123DCE7008000509B470008E2
S31508000C4038B5194B0546D3F828310C4603F0070387
S31508000C50013B052B20D8DFE803F003131B0F0B1706
S31508000C60FFF716FD052305B1286004B1236038BDDA
S31508000C70FFF70EFD0623F6E7FFF75AFD0723F2E70F
S31508000C80FFF73CFD0323EEE7FFF738FD0423EAE709
S31508000C90FFF74AFD0223E6E7044841F22D0103F077
S31508000CA03BFB00231846DEE7008000509B47000800
S31508000CB0F7B50027144B0197D3F88041064604F090
S31508000CC00304022C0D4614D0032C0DD0012C14D18C
S31508000CD0394601A8FFF77AFF0F240EB1019B33604E
S31508000CE005B12C6003B0F0BDFFF722FD0724019083
S31508000CF0F3E7FFF719FD0190EFE741F27A31034870
S31508000D0003F00AFB3C46E8E7008000509B470008D2
S31508000D1038B50F4B0546D3F890320C4603F003035B
S31508000D20012B09D0022B0BD1FFF702FD072305B1D2
S31508000D30286004B1236038BDFFF7F6FC0223F6E706
S31508000D40044841F2191103F0E7FA00231846EEE7C2
S31508000D50008000509B470008002337B50193194BC4
S31508000D600546D3F820320C4603F00703042B1FD898
S31508000D70DFE803F025030F141900002101A8FFF787
S31508000D805FFF11230DB1019A2A6004B1236003B0F5
S31508000D9030BDFFF7CDFC07230190F3E703F0B6FA61
S31508000DA00A230190EEE7FFF705FD09230190E9E71D
S31508000DB040F6EC71044803F0AFFA0023E2E701239A
S31508000DC0E0E700BF008000509B47000838B5104B8D
S31508000DD00546D3F840310C4603F00303022B0BD02B
S31508000DE0032B0DD0012B0FD103F090FA0A2305B17E
S31508000DF0286004B1236038BDFFF7DCFC0923F6E759
S31508000E0003F087FA0B23F2E701230020EFE700BF80
S31508000E1000800050002337B50193184B0546D3F8D8
S31508000E2060320C4603F00703013B032B1FD8DFE8AB
S31508000E3003F0020E1914002101A8FFF7C7FE0F23BD
S31508000E400DB1019A2A6004B1236003B030BD0021B8
S31508000E5001A8FFF7BBFF1023F2E7FFF769FC07239A
S31508000E600190EDE7FFF760FC02230190E8E741F205
S31508000E709101034803F050FA0023E1E7008000508F
S31508000E809B47000873B500240F4B0194D3F87032C2
S31508000E90064603F00303012B0D4607D0022B11D09B
S31508000EA041F2EF01094803F037FA04E0214601A8A8
S31508000EB0FFF78CFF10240EB1019B336005B12C603F
S31508000EC002B070BD1424F6E7008000509B47000866
S31508000ED038B5164B0546D3F800020C4600F0070055
S31508000EE0042819D8DFE800F020030B0F130003F0DD
S31508000EF00DFA0A2305B1286004B1236038BDFFF74F
S31508000F0059FC0923F6E703F004FA0B23F2E7FFF787
S31508000F10DFFB0E23800AEDE7054841F2384103F06E
S31508000F20FBF900231846E5E70123E3E700800050B4
S31508000F309B47000838B5164B0546D3F808020C46F9
S31508000F4000F00700042819D8DFE800F020030B0F8B
S31508000F50130003F0DBF90A2305B1286004B1236006
S31508000F6038BDFFF727FC0923F6E703F0D2F90B2370
S31508000F70F2E7FFF7ADFB0E23800AEDE7054841F2DD
S31508000F80704103F0C9F900231846E5E70123E3E7B2
S31508000F90008000509B47000838B5104B0546D3F82B
S31508000FA040320C4603F00303022B0BD0032B0DD063
S31508000FB0012B0FD103F0AAF90A2305B1286004B161
S31508000FC0236038BDFFF7F6FB0923F6E703F0A1F91E
S31508000FD00B23F2E701230020EFE700BF0080005053
S31508000FE038B5124B0546D3F850320C4603F00303C6
S31508000FF0022B0FD0032B05D0012B0FD103F086F956
S315080010000A2302E003F085F90B2305B1286004B131
S31508001010236038BDFFF7CEFB0923F6E7044841F203
S315080010205D0103F079F900231846EEE700800050C9
S315080010309B47000838B5104B0546D3F860310C4677
S3150800104003F00303022B0BD0032B0DD0012B0FD17A
S3150800105003F05CF90A2305B1286004B1236038BDA2
S31508001060FFF7A8FB0923F6E703F053F90B23F2E78A
S3150800107001230020EFE700BF00800050B0F5207F75
S3150800108010B534D009D8B0F5007F2AD003D898B166
S31508001090B0F5C07F10D0002421E0B0F5607FFAD10A
S315080010A0154BD3F88030C3F301149B0617D5032CD0
S315080010B015D040F285210FE00F4B1C6F230B13F060
S315080010C00E0FC4F303340AD0032C08D0072C06D01D
S315080010D00F2C04D040F27521084803F01DF9601C56
S315080010E010BD054BD3F89040C4F30464F7E7024BF0
S315080010F01C6FC4F38024F2E7008000509B47000869
S315080011004FF4803238B5104B04469A6600200D46D7
S31508001110FFF7B4FF41F671320C4B6043DC69DA63C2
S315080011205A6804F4803422F440125DB908498842AA
S315080011308CBF4FF480100020104358600CB1002279
S31508001140DA6338BD0349F2E7009000500000035007
S31508001150005A6202002D310170B5440905460E4653
S315080011600ED14FF447710F4803F0D6F805F01F0566
S31508001170AEB104F58053012000FA05F51D6070BD77
S31508001180012C08D0022C08D040F22631054803F07D
S31508001190C3F80024EAE7044CE8E7044CE6E704F55C
S315080011A00053E8E79B4700086480005068800050B9
S315080011B0002130B5B0F5807F85B00446019100F076
S315080011C0FE806BD8002800F0DA80A0F12004602C9D
S315080011D074D8602C72D8DFE814F0D200D500D2009B
S315080011E0D500E800E800E800E800E800D500ED00D2
S315080011F07D0003019D007D00D500D500D500710056
S315080012007100710071007100710071000301D50051
S31508001210D500D5001B010801D500710071007100C9
S315080012207100710071007100710071007100710028
S3150800123071000D01E800D200D200D200B0007D0096
S315080012407D00B80012019200C700C7007100710046
S3150800125071007100710071007100710071007100F8
S3150800126071007100710071007100710071007100E8
S3150800127071007100710071007100710071007100D8
S3150800128071007100710071007100710071007100C8
S3150800129071007100710071007100CC00B0F5E06F4B
S315080012A000F0A3803BD8B0F5607F75D01DD8B0F5A7
S315080012B0007F71D008D8B0F5C07F60D040F2794180
S315080012C0564803F029F857E0B0F5207F5AD0B0F514
S315080012D0407FF3D1FFF7FCF904464FF42070FFF77F
S315080012E0CDFEB4FBF0F0400845E0B0F5B06F61D034
S315080012F00AD8B0F5806F58D0B0F5A06FDED10021BE
S3150800130001A8FFF729FD37E0B0F5C06F68D0B0F542
S31508001310D06FD3D1002101A8FFF7DAFD2CE0B0F594
S31508001320286F6CD016D8B0F5186F63D00AD8B0F508
S31508001330F06F6DD0B0F5106FC0D1002101A8FFF78E
S31508001340F9FD19E0B0F5206FB8D1002101A8FFF723
S3150800135061FD11E0B0F5306F56D0AFD3B0F5386FF8
S315080013603ED0B0F5406FA9D1002101A8FFF768FC6F
S3150800137002E0FFF793F90190019805B030BDFFF739
S31508001380A7F9F8E7FFF7A4F904464FF42070FFF72A
S3150800139075FEB4FBF0F0EEE7FFF780F90546204648
S315080013A0FFF76CFEB5FBF0F0E5E7002101A8FFF7B3
S315080013B00DFCE1E7002101A8FFF77AFCDCE74FF016
S315080013C0E02302911B695B0705D5FFF781F90290B7
S315080013D0029B0193D0E703A902A8FFF7F7FCF7E7FA
S315080013E0002101A8FFF7F2FCC6E7002101A8FFF7D4
S315080013F0D3FDC1E7002101A8FFF7F2FDBCE70021F4
S3150800140001A8FFF73FFDB7E701A8FFF781FCB3E79F
S31508001410002101A8FFF70EFEAEE700BF9B470008B4
S3150800142008B58020FFF7C4FE034B98429EBF4FF4D1
S315080014308032024B1A6708BD005A620200A00050AB
S315080014401FB50023B0F5807F019300F0D68076D8CB
S31508001450582867D8382805D82438092848D940F2A2
S315080014605A51BEE039381F28F9D801A353F820F09D
S315080014701D1600085F1400085F1400085F140008B2
S31508001480271600086D1600085F1400085F14000888
S315080014905F1400085F1400085F1400085F14000852
S315080014A05F1400085F1400085F1400085F14000842
S315080014B05F1400085F1400085F1400087716000818
S315080014C0651500085F1400085F1400085F1400081B
S315080014D0A91500085F1400085F14000881160008A3
S315080014E08B16000863160008CB150008CB150008F4
S315080014F00928B4D801A353F820F000BF65150008E1
S3150800150065150008651500086515000865150008C5
S315080015105F140008EB1500085F1400081D16000884
S315080015208315000880289AD15D4B1B6F03F00703CB
S31508001530013B032B53D8DFE803F0504D8890B0F5F4
S31508001540086F75D022D8B0F5C06F67D00FD8B0F540
S31508001550A06F00F08680B0F5B06F46D0B0F5806F0A
S315080015607FF47DAF002001A9FFF730FB41E0B0F51D
S31508001570E06F7BD0B0F5F06F55D0B0F5D06F7FF443
S315080015806EAF002001A9FFF7A3FC32E0B0F5286F83
S315080015907BD00ED8B0F5186F6DD0B0F5206F6FD030
S315080015A0B0F5106F7FF45BAF002001A9FFF7C2FC0E
S315080015B01FE0B0F5306F6DD0FFF451AFB0F5386F5E
S315080015C02CD0B0F5406F7FF44AAF002001A9FFF791
S315080015D037FB0EE0052301930BE00223FBE740F2FD
S315080015E0AB41304802F098FE03E0002001A9FFF75E
S315080015F05FFB019805B05DF804FB02934FF0E0230A
S315080016001B695B0705D5FFF763F80C230393039B58
S31508001610E1E703A902A8FFF7D9FBF8E7002001A92B
S31508001620FFF7D4FBE5E7002001A9FFF703FDE0E794
S315080016301B4BD3F8003103F00303022B07D0032B0F
S3150800164009D0012B0BD1FFF759F80323C3E7FFF79E
S31508001650B1F80923BFE702F057FE0823BBE70123C9
S31508001660B9E7002001A9FFF777FBC2E7002001A927
S31508001670FFF792FCBDE7002001A9FFF7B1FCB8E728
S31508001680002001A9FFF7C6FBB3E7002001A9FFF771
S31508001690F9FBAEE7184601A9FFF73AFBA9E700BF31
S315080016A0008000509B4700084FF48012034B5A668F
S315080016B04FF48032024B9A62704700BF0090005088
S315080016C00050005A036870B50F2B044604D940F63B
S315080016D04631814802F020FE63680F2B04D940F694
S315080016E049317D4802F018FEA3680F2B04D940F64D
S315080016F04C31794802F010FE237B0F2B04D940F6B3
S315080017004F31754802F008FE637B0F2B04D940F66B
S315080017105231714802F000FEA37B3F2B04D940F6F4
S3150800172055316D4802F0F8FDE37B3F2B04D940F6AE
S315080017305831694802F0F0FD2369032B04D940F6B5
S315080017405B31654802F0E8FD6369032B04D940F66E
S315080017505E31614802F0E0FDE369032B04D940F6E7
S3150800176061315D4802F0D8FD8020FFF769FE032845
S3150800177000F091804FF48012584B594D5A6645F641
S315080017800E034FF0A062C5F88030564B9A624FF4AC
S31508001790803203F580539A62AB6DDA03FCD4AE6DE2
S315080017A016F08046FBD1D4E900231B0543EA026301
S315080017B0E27B4D481343227B43EA0243627B43EABA
S315080017C00233A27B43EA82132B61AA69D4E9041384
S315080017D01B0643EA816302F000421343A27E4FF4DC
S315080017E040611343227E43EA0243627E43EA0223B0
S315080017F0AB614FF4006202F040FEE1692B6A0029F2
S315080018000CBF00220822E07E23F00F0343EA0103FF
S3150800181043EA800343EA0203314A344D13623BD15B
S3150800182094F82430916A94F82000DB000D4043EACE
S31508001830401394F821102B4343EA011343F48033F1
S3150800184093622B4B916D33EA0101FBD14FF0807106
S31508001850244881621369A56823F4700343EA055393
S3150800186013614FF00043836194F822300BB9214B82
S31508001870996294F823303BB94FF480321D4B9A6233
S31508001880174A936D5B00FCD494F825301BB1144BB2
S31508001890194AC3F8802070BD022908D116614FF491
S315080018A07F41966115484FF4085202F0E6FD0C494F
S315080018B094F822308A6A94F820001B06154043EAF9
S315080018C0401394F824202B4343EAC20394F82320B8
S315080018D043EA02438B62D7E79B4700080090005013
S315080018E00040005A0050005A3840005AC7FFFEFE12
S315080018F0030001000060005AF1A7FFFF3440005AB8
S31508001900014B93F90000704792100020436810B508
S31508001910072B044604D940F67C512A4802F0FCFC01
S31508001920A368032B04D940F67E51264802F0F4FC3E
S315080019302378032B04D94FF45861224802F0ECFCB3
S3150800194094F90130002B04DA40F682511D4802F062
S31508001950E3FC4FF400011C4A637851664FF4D151F9
S31508001960022002F5B832516218494F2B48604FF0F1
S31508001970010028BF4F2301F5805148601169C9034A
S31508001980FCD4217843EA01235361D4E901131B01EE
S3150800199043EA0123617B0B43217B43EA41039360BE
S315080019A0E37BA17B1B0143EA4113617C0B43217C4A
S315080019B043EA41035360A37C13B16FF4D1535362D6
S315080019C010BD00BF9B470008009000500010025051
S315080019D0014B1880704700BF8A100020014B188001
S315080019E0704700BF88100020B0F5207F10B565D07D
S315080019F00ED8B0F5007F4FD003D800B3B0F5C07F3E
S31508001A001DD040F2FF21BDE81040344802F084BCE6
S31508001A10B0F5607FF5D14C1E012C06D9042904D0F7
S31508001A2040F2E2212D4802F077FC2D4AD2F88030A8
S31508001A3023F0300343EA0413C2F8803010BD10299E
S31508001A4001F1FF3404D8274B23FA01F1CB0704D45C
S31508001A5040F2B621214802F05FFC02F01FFD02F0B9
S31508001A602BFD4FF48031204B1D4A1967136F23F461
S31508001A70704343EA04331367FEF72AFE0446FFF76A
S31508001A8099F8C0F10201204602F010FD00F03EF878
S31508001A90BDE81040FFF7C4BC4C1E1F2C04D940F209
S31508001AA0F3210E4802F038FC0D4BD3F8901021F0C4
S31508001AB0F85141EA0461C3F89010BFE74C1E012CA7
S31508001AC004D940F2F921054802F026FC044B196FA7
S31508001AD021F4806141EA84211967AFE79B47000832
S31508001AE000800050160101000090005008B5012141
S31508001AF0022000F081F802F0D1FC02F0DDFC4FF480
S31508001B008032014B1A6708BD0090005008B54FF4A3
S31508001B10C070FFF74DFBBDE80840044988428CBFFA
S31508001B20022101214FF42070FFF75EBF80F0FA0210
S31508001B3038B5C5B24B2D044604D940F216310748CC
S31508001B4002F0EAFB064B640953F8240005F01F056A
S31508001B50E840C04300F0010038BD00BFC747000891
S31508001B6000E100E0024A536B0342FCD1704700BF14
S31508001B7000400950044A4178536F23F4407343EAFE
S31508001B8001235367704700BF004000500A4A10B54A
S31508001B901369044643F00403136101F0E3F902F004
S31508001BA0B5FC30BF02F0B3FC01F0F0F91CB9BDE892
S31508001BB01040FEF78DBD10BD00ED00E0084A10B5D7
S31508001BC01369044643F00403136101F0CBF930BFEF
S31508001BD001F0DCF91CB9BDE81040FEF779BD10BD6F
S31508001BE000ED00E0034A0179D36E23F030030B437E
S31508001BF0D3667047004000502DE9F0410446264B55
S31508001C00D3F88420D006FBD4D3F88430C3F38113E9
S31508001C109C423ED0FEF742FD012C05460BD11F4BD8
S31508001C20984204D940F261711D4802F075FB012102
S31508001C30284602F03BFC02F059FC4FF00072194BA3
S31508001C4007465A66204602F065FC4FF48063124E3A
S31508001C50621E9340DFF848803367736E9A0103D497
S31508001C60D6F884309B060AD5384602F043FC022C87
S31508001C700FD12846BDE8F041002102F017BCD6F87E
S31508001C8084309906E9D540F26F71404602F044FB6C
S31508001C90E3E7BDE8F08100BF00400050005A620249
S31508001CA0F44700080060005007B518B90191FEF71F
S31508001CB0F5FC0199064B1B7843B1064B984205D8AB
S31508001CC0012003B05DF804EBFFF796BF0220F8E7A2
S31508001CD084130020005A62020278034B0121002077
S31508001CE01A70FFF7E1BF00BF841300204FF00042CF
S31508001CF038B5244B244C5A664AF6CD33656C0146F2
S31508001D0005F00105236430BB0120FFF72BFF63684C
S31508001D10DB0708D4002415B11B4B1C4A1A6402F0D1
S31508001D20FAFB204638BD1A4B58600846194B226BF9
S31508001D30D20705D4984201D10724ECE70130F6E72B
S31508001D409842E7D1F8E70132236B13F0080305D070
S31508001D508A42F8D1F0E700220E49F5E78A42EBD02D
S31508001D6020210B4A91620121A2F580525160064951
S31508001D70084A886A800603D49342DDD00133F8E71F
S31508001D809342DEE700900050004009503254FFFFAE
S31508001D900060095040420F004FF0004238B5164B1C
S31508001DA001465A664AF6CD33144C154A656C2364C7
S31508001DB043780B205B0043F00103D363FFF7D2FEA1
S31508001DC063688A7823F4F87343EA02136360CA786F
S31508001DD04B7943EA0223A3600A798B7943EA022303
S31508001DE023610878FFF782FFEB0744BF054B23649E
S31508001DF002F091FB012038BD0090005000400950C8
S31508001E00004000503254FFFF0F2870B5044604D92D
S31508001E1040F6FC51134802F07FFA4FF00042124B8D
S31508001E2012495D6E03F580535A664AF6CD334E6CF9
S31508001E3080200B64FFF796FE0B6A23F00F030F2C26
S31508001E4094BF234343F00F030B62F30744BF084BC9
S31508001E500B64002DA2BF4FF00042064B5A6602F0F3
S31508001E605AFB70BDF4470008008000500040095036
S31508001E703254FFFF00A000501F2970B504460D46D6
S31508001E80164603D99121074802F046FA36B104F5F9
S31508001E908054012101FA05F5256070BD04F500544A
S31508001EA0F7E700BF2048000838B50D460446B0B12C
S31508001EB0012817D0022817D0032803D13F23EB4067
S31508001EC0DB0704D440F22D41094802F025FA3020F8
S31508001ED001214443074B01FA05F51D5138BD40F26F
S31508001EE0FF73ECE70F23EAE740F2FF33E7E700BFAB
S31508001EF03047000840D0035038B50D460446B0B107
S31508001F00012817D0022817D0032803D13F23EB4016
S31508001F10DB0704D440F2FE31094802F0FDF930200F
S31508001F2001214443074B01FA05F51D5138BD40F21E
S31508001F30FF73ECE70F23EAE740F2FF33E7E700BF5A
S31508001F403047000840E003502DE9F3470D46144694
S31508001F501E4681469DF828809DF82C70002843D09F
S31508001F60012844D0022844D0032803D13F23EB405C
S31508001F70DB0703D4BF21294802F0CEF985EA04031A
S31508001F8033F0030303D0C121244802F0C5F9072C16
S31508001F904FF0030105F003052ED84FEA840A01FA2B
S31508001FA00AF11F4809FA0AF2019102F0B5FA0199F5
S31508001FB01C4805FA0AF202F0AFFA324621461A48D8
S31508001FC0FFF75AFF424621461848FFF755FF0123F7
S31508001FD0174AA340C2F8203421463A46154802B0AB
S31508001FE0BDE8F047FFF748BF40F2FF73BFE70F238E
S31508001FF0BDE740F2FF33BAE7A4F1080A4FEA8A0AB6
S3150800200001FA0AF10C4809FA0AF2019102F084FA77
S3150800201001990A4805FA0AF2CDE700BF4C480008BC
S3150800202000C4035008C4035010C4035014C403501A
S3150800203000E0035024C4035004C403500CC40350E6
S315080020402DE9F0410D46174698460446002835D036
S31508002050012836D0022836D0032803D13F23EB4087
S31508002060DB0704D44FF4B0711D4802F055F937B1B7
S3150800207029462046B8F1000F28D0FFF715FF0F2193
S31508002080072D04EB440688BFA5F108034FEA061698
S31508002090144895BFAB009B0004360C3607FA03F2CA
S315080020A09940304402F038FABFB929462046B8F1BB
S315080020B0000F0ED0BDE8F041FFF7F6BE40F2FF7301
S315080020C0CDE70F23CBE740F2FF33C8E7FFF714FF4E
S315080020D0D5E7BDE8F041FFF70FBFBDE8F08100BFC7
S315080020E04C48000830C00350242808B515D82028C5
S315080020F00AD8012819D00C2819D068B10E48B6217B
S3150800210002F00AF9002007E02238022803D8DFE89F
S3150800211000F010080A00012008BD3228EED106207A
S31508002120FAE70420F8E70520F6E70320F4E7072096
S31508002130F2E70220F0E700BF794800080C2810B53E
S315080021400C4617D003D801280FD0204610BD2428E6
S3150800215008D82028F9D9042CF7D9F6210B4802F01B
S31508002160DBF8F2E73228F6D0EFE70229EDD940F29C
S315080021700711F3E7022904D0032904D04FF48B7121
S31508002180ECE70024E1E70124DFE700BF794800080F
S31508002190F8B50546C2F3062702F0070479B90B28F5
S315080021A004D94FF4FC71114802F0B6F8104B44EA12
S315080021B0072444F44024063543F82540F8BD03288F
S315080021C004D940F2FD11094802F0A6F8214638461E
S315080021D0FFF7B4FF06463846FFF786FF044B46EA84
S315080021E00020123543F82500E8E700BF79480008C3
S315080021F000800350B2F5805F70B505460E4614465A
S315080022000DD34FF40B71084802F086F824F0030248
S3150800221002F1A04202F5603226B9156001E0002AF3
S31508002220F4D170BD2D02F8E77948000870B5064666
S315080022300C46154622B940F28E210C4802F06CF87D
S3150800224024B94FF42070FEF7B3FF04466D00013C35
S31508002250B4FBF5F4064B250213EA042304D040F236
S31508002260B321024802F058F8F56170BDA548000888
S31508002270070080FF124B10B59842044604D040F27E
S315080022804241104802F048F8012104F5805359608C
S3150800229040F6AA6341F20502636100230A48A36077
S315080022A0E365E26004F500522361E361E364906448
S315080022B00348A365844204BF23656365516010BD66
S315080022C000C00550A5480008FFFF010038B52D4B92
S315080022D0044698420D4604D040F269312A4802F075
S315080022E01BF82046FFF7C6FF0122A97B04F5805399
S315080022F05A602A8AA368002914BF4FF48061002116
S3150800230042F0010213432A7D0B43002A14BF4FF003
S3150800231000520022A360A3681343A360AB7C5BB1A1
S31508002320184B9C4202BFEA7CA3F51033C3F8D421AC
S31508002330E36D43F08003E3652B7B2046D5E9011264
S3150800234043F48053E360FFF771FF6B7B0BB11023F7
S3150800235063616B7D1BB1A36843F48033A360AB7DD7
S315080023601BB1A36843F40043A360EB7D2A7E1B07D9
S31508002370120503F0E04302F4E0021343A3652B7849
S31508002380636138BD00C00550A5480008054B9A682A
S315080023909107FCD45A689207F9D4DA69002AF6D16B
S315080023A0704700BF00800A5008B5FFF7EFFF01220B
S315080023B0024B03F580514A601A6108BD00800A5035
S315080023C0074B5A68012A0AD15A68D20702D5DA6930
S315080023D0002AF9D102221A610122024B5A6070477B
S315080023E000800A5000A00A5010B5064CFFF7CEFF31
S315080023F06368012B03D1FFF7E3FFFFF7C7FF0378F5
S31508002400E36010BD00800A5018B17121104801F030
S3150800241083BF4A680B7812B1127843EAC2034A7836
S31508002420002A14BF0222002213438A6812B11278C6
S3150800243043EA82138A78002A14BF0422002213432F
S31508002440CA6812B1127843EA4223024A9364704773
S31508002450D348000800800A5020B14FF4827103481F
S3150800246001F05ABF024B5964704700BFD3480008B1
S3150800247000900A5020B14FF4A071034801F04CBFF8
S31508002480024B5964704700BFD348000800A00A50A1
S3150800249020B14FF4BE71034801F03EBF024B1964E8
S315080024A0704700BFD348000800A00A5008B530B1ED
S315080024B0044840F2B71101F02FFF002008BD024B77
S315080024C0186CFBE7D348000800800A5008B548B1E5
S315080024D0084840F2662101F01FFF002008BD064BA0
S315080024E0D86CFBE70029FAD00129F7D1024B186D01
S315080024F0F4E700BFD348000800800A5050B14FF4F3
S315080025004171074801F008BF064BDA647047054B6E
S315080025101A6570470029F7D00129F8D0704700BF1F
S31508002520D348000800800A5007B5094B18689A88EE
S315080025309B7900906846ADF804208DF80630FFF7C1
S315080025402BFC0620FFF760FC002003B05DF804FBB7
S315080025500F49000813B50024064A6846536F43F02E
S315080025600103536700948DF80440FFF73BFB2046B0
S3150800257002B010BD0040005030B58BB06C46174D08
S315080025800FCD0FC40FCD0FC495E8030084E80300F0
S31508002590134BD3F84C21120318D4D3F85041E4B2A4
S315080025A08DF81940FFF7ACF9204480F308008DF840
S315080025B018000C48FEF7A8F86846FFF783F84FF4AA
S315080025C0FA70FFF70BFA00200BB030BD064B1C88DB
S315080025D04FF6FF739C4208BF6A24E1E718490008D2
S315080025E00080E00FC01753020001E00F30B5084D18
S315080025F087B001AC0FCD0FC42B6801A82360FFF785
S3150800260085F96420FFF7E4F9002007B030BD00BF64
S31508002610404900086FF00402502110B50A480B4CD7
S3150800262012F0800FD3B21BBF03F00F03043BA318AD
S315080026301B1802F101020CBF83F8001319764C2A05
S31508002640EED1002010BD00BF00ED00E000E100E083
S3150800265038B500F01FFE0446E0B900F0DFFE4FF47F
S31508002660167343430C4803F5742303F23F23B3FB65
S31508002670F0F30A4A0A4913600A220D680948013A22
S3150800268012F0FF0240F8043BF9D103EBC3022B44D6
S3150800269013440B60204638BD40420F003413002017
S315080026A00413002008130020012208B5034B1A70F2
S315080026B001F081FF024B186008BD00BF851300209A
S315080026C0301300200122024B1A70024B1860704723
S315080026D08613002000130020F8B5234D234C2A78D2
S315080026E0237812B9002B34D1F8BD23B100232B70FF
S315080026F038E02B784BB301F05EFF1D4B1B68C01A00
S315080027001C4B1D4F18601B4B1C481968DFF878C016
S31508002710012938BF01211960037857F8232047F8A3
S315080027202310561A0A21DCF800200133921BCCF834
S3150800273000200932B2FBF1F2114EDBB23260B3FB74
S31508002740F1F201FB12330370D0E701F034FF33686E
S31508002750D5E701F030FF0B4E3368984201D9002BBC
S31508002760C7D100232370BFE78513002086130020F6
S3150800277030130020FC1200200813002087130020C5
S31508002780341300200013002004130020014B18689E
S31508002790704700BF3413002020234FF48012042111
S315080027A010B50F4C0F4884F82D330F4B5A660F4B54
S315080027B003F5005250675167106711674FF40052CE
S315080027C0C4F88421626003F58052506751679A6A9B
S315080027D022F000729A629A6A42F410629A6210BDF6
S315080027E000E100E0010000A0009000500040005AFF
S315080027F0044B9A6D12F0050F02D10028F9D17047E3
S31508002800012070470040005A164B10B51C6F14F093
S31508002810040211D003F500531A6708229A62FFF7DB
S315080028205BFF00F0EFFA00F0CFFA012000F00EFF90
S3150800283004210020FFF72CFEE30706D501220A4BE8
S315080028401A67FFF749FF00F0BFFA14F000521CBFE1
S31508002850054B1A67002CBEBF4FF00042024B1A67A1
S3150800286010BD00BF0040005A0060005A054B1A7898
S315080028702AB95B78002B14BF022003207047012079
S31508002880704700BF901300200329F8B505460E4689
S3150800289007D8174B5C5C032D19D8DFE805F0090F3C
S315080028A0121540F23331134801F036FD0024F2E7E1
S315080028B044F00204104B1F687FB9F8BD44F00804C1
S315080028C0F8E744F02004F5E744F08004F2E74FF413
S315080028D05271084801F020FDECE77B681A6814423B
S315080028E003D0314628465B6898473F68E4E700BF4F
S315080028F09A490008544900085C13002038B5104D61
S315080029002B78ABB10F4C23781BB100F06BFB00237F
S315080029102370002000F08AFB0B4C50B100F090FBAE
S315080029200023012120782B70FFF7AEFF01232370C7
S3150800293038BD0122054B1A702278054B1A70F7E745
S315080029408F1300208A130020881300208E1300207E
S315080029509513002010B501F0C9FD064B04461B78F7
S315080029601BB1BDE8104001F0C5BDFFF7C7FF204603
S31508002970F7E700BF8913002038B5134D04462B78B6
S31508002980FF2B05D160B140F2C731104801F0C4FCF5
S315080029902B782BB924B940F2C9310C4801F0BCFC9C
S315080029A0002C14BF0122FF222B7813442B700AD067
S315080029B0074B1B78012B06D9064B1B781BB9BDE8BC
S315080029C03840FFF79BBF38BD9013002054490008D4
S315080029D0881300208E13002070B501F087FD124E73
S315080029E0054633789BB900F055FC044620B12846C5
S315080029F001F080FD204670BD0C4801F08EFC00F009
S31508002A0007FF0B4B1C6000F009FD0A4B186000F02D
S31508002A102DFA01F0AFFD084B002418600123284663
S31508002A20337001F067FDE5E78B1300205C13002087
S31508002A306413002060130020581300202DE9F34189
S31508002A40441EE3B2012B0D4604D94FF4CA7131482E
S31508002A5001F062FC304E335DFF2B05D165B140F2C3
S31508002A6097112C4801F058FC335D2BB925B940F273
S31508002A709911284801F050FC002D14BF0122FF22AD
S31508002A80335D134433553AD0244E3178012936D96B
S31508002A90FFF7ECFE0128044634D8214F01F026FD45
S31508002AA03B781BB31F4D2B781BB901222A701E4A8F
S31508002AB01370DFF8788098F8003033B1019000F091
S31508002AC091FA0023019888F8003001F013FD0120DF
S31508002AD000F0ACFA01F00AFD2B782BB1019000F05A
S31508002AE0AFFA002301982B7000233B7001F002FD1A
S31508002AF03078A04203D02146FFF7C6FE347002B0F4
S31508002B00BDE8F0810329F3D10228F1D101F036FDA1
S31508002B10EEE700BF544900089013002088130020F0
S31508002B208F130020891300208E1300208A1300209B
S31508002B3068B501F0DBFC094B06461B78012B04D867
S31508002B4001F0D8FC0025284668BD054B1D6800F035
S31508002B50B1FA0544304601F0CDFCF4E788130020AD
S31508002B6064130020054B1B685843054B00F5742079
S31508002B7000F23F20B0FBF3F0704700BF601300205F
S31508002B8040420F002DE9FF47EFF3108672B600E0CA
S31508002B9000BF01F077FB002800F0A880744D754F40
S31508002BA02B7823B10020FFF7E7FE00232B70FFF7F1
S31508002BB05DFE012812D00AD90238C0B2012840F2B7
S31508002BC09C804FF46C716C4801F0A6FB06E02B78EC
S31508002BD023B10020FFF7D0FE00232B70FFF746FE37
S31508002BE00128804604D9654B1B780BB901F0C0FC57
S31508002BF0634CDFF8AC912078DFF8A8A140450AD0ED
S31508002C00002389F800309AF8003013B94146FFF7D7
S31508002C103BFE84F8008099F800303BB12378022BFC
S31508002C2004D1002389F8003000E000BFB8F1010F95
S31508002C300FD9DFF8488198F8003053B9514B1B7803
S31508002C4023B900F0C9F901224F4B1A70012388F8FD
S31508002C500030207800F012FA9AF8003013B14B4B86
S31508002C601B78237000E000BF06B962B6EFF3108642
S31508002C7072B6474B1A7852B100221A70434B207825
S31508002C801B78984203D101212170FFF7FDFD3846D4
S31508002C9000F03AFB01F0FAFA8046002880D189F85C
S31508002CA00000DFF8D89099F8003093B1364F8AF8CB
S31508002CB000003B781BB100F095F987F800800020EA
S31508002CC000F0B4F9002849D000F0BAF9002389F8D1
S31508002CD000302B7823B10020FFF74EFE00232B701F
S31508002CE000212078FFF7D0FD0023237000E000BF05
S31508002CF006B962B604B0BDE8F087002003A900F063
S31508002D0047FB00287FF46AAF224B039A1B689A4256
S31508002D1004D80120FFF730FE01235EE71E4B1C682E
S31508002D2000F0C8F9241804D540F29931124801F088
S31508002D30F3FA039B9C42ECD200F0CCF900280CBFB6
S31508002D400023042343F00203019300230399384622
S31508002D50124A0093091B01F012FC3FE7012000F01C
S31508002D608DF906B962B6EFF3108672B6A7E700BF0B
S31508002D709413002038130020544900088F130020AC
S31508002D8088130020931300208A130020951300202F
S31508002D908D130020581300206413002055290008BD
S31508002DA0921300208E13002010B501F09FFB00221D
S31508002DB0044B1C781A7001F09DFB00F03BFC204385
S31508002DC0C0B210BD8C13002010B5094B1B786BB12F
S31508002DD0084C237853B100F033F90023064A2370D0
S31508002DE013700123054A1370054A137010BD00BFFE
S31508002DF0881300208E1300208F1300208C130020C8
S31508002E008D130020034B1B7813B10122024B1A7055
S31508002E10704700BF881300208E13002073B5114E2B
S31508002E2004463378834212D000238DF8043080B1EB
S31508002E3002238DF8053001A8FEF79CFE0A4D4020B6
S31508002E4054B1FFF78FFE2B68181A2860347002B049
S31508002E5070BD8DF80500EEE7FFF784FE2B68184471
S31508002E60F3E700BF931000206C13002073B500240D
S31508002E7001A88DF80440FEF72FFF2046FFF7CEFF86
S31508002E804FF480102F4B30491A6F02F007020A6080
S31508002E902E49D3F8203148664FF40030486601F5CC
S31508002EA098318969032A01F0020137D003F0070334
S31508002EB0981E434243412648264D0370002939D0BF
S31508002EC0204A3BB9D2F8003103F00303591E4B429E
S31508002ED04B410370D2F8003103F00303022B1FD0D5
S31508002EE0032B20D0012B21D1FDF708FC10B31A4B78
S31508002EF0411EDC680023024608461946C4F30B0443
S31508002F00164E013404EB8404E4FB060100F0CAFF04
S31508002F10FFF728FE2B68184428600BE00123CAE750
S31508002F20FDF748FCE2E701F0EFF9DFE7EC210C4892
S31508002F3001F0F2F91F20FFF715FE2B6818442860E8
S31508002F4002B070BD00800050681300200090005049
S31508002F50981300206C13002000C0015040420F0057
S31508002F609E490008074B1A7852B100221A70064A81
S31508002F70136F23F0070343F001031367FDF7A8BB9C
S31508002F80704700BF961300200080005008B50E4B0E
S31508002F901B788BB1022001F027FB68B100F02AFAF2
S31508002FA050B10A4B9A6DD20307D5DB6D9B0704D542
S31508002FB04FF48032064B9A6208BD0122054B1A70FF
S31508002FC0FFF772FBF4E700BF981300200040005A91
S31508002FD00050005A971300200122014B1A707047BF
S31508002FE09613002038B50D4B1B7873B10C4C23781B
S31508002FF08BB90C4B0C4D9A6D12F4803F06D0DB6DE5
S315080030009B0703D54FF48033AB6238BDFFF74CFB03
S315080030104FF48033AB6200232370F6E79813002041
S31508003020971300200040005A0050005A034B1B78A3
S315080030300BB1FFF7DDBB0120704700BF98130020D6
S3150800304008B501F066FA094A0949136F096823F0B9
S3150800305007030B431367074B1B781BB14FF48032EA
S31508003060054B9A62BDE80840FDF732BB0080005068
S3150800307068130020981300200060005A02280AD01E
S3150800308003280BD001280CD1084A136923F004033E
S31508003090136130BF70470020FEF778BD0020FEF7A9
S315080030A08DBD40F20D21024801F036B900ED00E071
S315080030B09E49000808B5054B187818B1FFF766FB56
S315080030C000EBD000024B1B68184408BD981300207B
S315080030D06C130020014B1878704700BF9813002026
S315080030E010B500F00BFB0A4C0A4B19682368C31A83
S315080030F001B10BB9206010BD4A699A423ABF9B1AC2
S315080031000022D21A4A6128BF00238968F0E700BF67
S31508003110701300207C130020C38870B504460D4642
S315080031203BB9FFF705FD8542064602D201F014FABF
S3150800313035460F4965610B68ABB90C60A36011E0B1
S31508003140AD1A9A68184665612AB113465A69AA42A1
S31508003150F6D950B11A4613468460A36013B159696B
S31508003160491B596170BD0020F0E70C60F5E700BF08
S315080031707C13002038B5134D2B685B6993B1124A4E
S31508003180022014681C4401F026FA204600F0EAFAE8
S3150800319000230E492A680B70D088800709D50123B9
S315080031A00B7038BD022001F016FA022000F028FB49
S315080031B0EEE79268002AF4D050690344012BEBD954
S315080031C0EFE700BF7C130020701300209A1300203D
S315080031D0F8B516469DF81C20BDF820700271069AAF
S315080031E00446026000220D46C0E903368260C780A5
S315080031F0C6B900F083FA2844A0613DB9E368656161
S3150800320013B120462168984756B13546062F0DD189
S31508003210104A2846936A43F00803936200F076FA48
S315080032200020F8BD00F06AFA3044E5E701F05EF9DF
S315080032300646FFF755FF29462046FFF76DFF064B62
S315080032401B68A34201D1FFF795FF304601F052F9FA
S31508003250E6E700BF0040005A7C13002000220C4914
S315080032600B687BB183420AD183687AB1936083681D
S315080032701BB15A6941690A445A61002070471A46C7
S315080032809B68EEE70028EFD0022070470B60EEE758
S315080032907C13002070B501F030F9144E05463478D9
S315080032A0FCB9134B1C60134B1C60134B1C8000F0BD
S315080032B0DDF9012001F08FF901F0C1F90F4B024643
S315080032C0186020B9284601F01EF9232070BD234650
S315080032D040F2E7310A4800F0E5FD0A4B1860012381
S315080032E03370284601F00FF90020EFE79913002004
S315080032F07C13002070130020801300207813002010
S3150800330018FCFFFF741300202DE9F0410546F8B1BB
S3150800331001F0ECF80F4F0646FFF7E2FE2846D7F80D
S315080033200080FFF79BFF044628B1304601F0E2F81B
S315080033302046BDE8F081A8453B6803D123B1FFF7D5
S3150800334019FFF2E7002BF0D1022000F043FAECE770
S315080033502224EDE77C13002038B50C46054698B1C3
S3150800336091B100230B7001F0C8F80121074B1B68C7
S315080033700BB122781AB101F0C6F8002038BDAB426D
S3150800338014BF9B682170F3E72220F7E77C1300201F
S315080033902DE9F0410746884601F0AFF800260546B4
S315080033A0124B1C6824B9284601F0ADF81B2016E01C
S315080033B063691E44E388BB4215D100F09FF90C4CA3
S315080033C02368C01AB0420CD200F098F92268324439
S315080033D0121A2846C8F8002001F095F80020BDE822
S315080033E0F0810022F5E7A468DCE700BF7C13002023
S315080033F07013002008B5074B187848B101F0DBF8C0
S31508003400054B1B689B69C01A02288CBF0020012047
S3150800341008BD00BF9A1300207C130020014B1868D2
S31508003420704700BF781300200C4B70B51B680D461B
S31508003430834211D340F2E73100248C462146084BDB
S315080034404FF47A721E680023E0FB06C1604600F05E
S3150800345029FD2860204670BD2120FCE77413002052
S3150800346078130020F0B51F46002387B00C46164691
S3150800347005468DF8133058B30DF11301FFF76CFFAD
S315080034809DF8133033BB204605A9FFF7CDFFE8B9F1
S31508003490114B059A19684C434FF47A71B4FBF1F352
S315080034A001FB134400230C1BEB83A4B2BDF8343094
S315080034B08C420CBFA883AC8302939DF8303011462A
S315080034C0CDE9007328463346FFF782FE07B0F0BD04
S315080034D02220FBE70220F9E778130020C2072DE92E
S315080034E0F84F04460BD54F4A138801339BB2138015
S315080034F0FFF7F6FD4C4B1B680BB1FFF73BFEA30726
S3150800350040F18E8000F0F9FF4FF0000A0546564656
S31508003510FFF7E6FDD046444FDFF814913C680CB13E
S3150800352063698BB10022414B012E1A7003D11AF040
S31508003530020F18BF1E70002C62D0FFF71BFE28462C
S31508003540BDE8F84F00F0DFBF23461A79217991428A
S3150800355088BF1C469B6813B15A69002AF5D02846CD
S3150800356000F0D1FFD4F810A0BAF1000F4CD000F04B
S31508003570C5F8A269851AEB17AA4578EB030344DA5E
S31508003580236913440122A36123691BB312BBEB17FA
S31508003590BAEB050563EB4303002B04DA40F221512D
S315080035A0484600F0B9FEA38B33B1E28B13449BB2B5
S315080035B0B3F57A7F1CD2E38300F09FFF8246294643
S315080035C02046FFF7A9FDA369226950461344A36163
S315080035D000F099FFE368B4F806A0013613B1204657
S315080035E02168984700F089FF0546FFF779FD95E7BA
S315080035F0A3F57A73E383A369013D013BA361DBE786
S31508003600022000F0E7F89AE7554600F076FF834671
S315080036102046FFF723FE584600F075FF0022B3E761
S31508003620BDE8F88F801300207C1300209B13002030
S31508003630EB49000810B500F060FF034B1C7800F05A
S3150800364062FF204610BD00BF9B130020014B187077
S31508003650704700BF9B130020034B5A68D20702D558
S31508003660DA69002AF9D1704700800A5030B5012579
S315080036700024042387B029463E208DF80430CDE97E
S3150800368003448DF80040ADF808508DF80A400594BB
S31508003690FDF762FD6846FEF7A7FE01AB204602A9C4
S315080036A00493ADF80840FEF7AFFE20460F21FEF75B
S315080036B0E1FE0F212046FEF7EBFEFEF775FEFFF74B
S315080036C0CBFF40220B4B9C610B4BC3F888219A60B9
S315080036D03B202946FDF740FD2146284640F6017263
S315080036E0FEF756FD4FF49C7221462846FEF782FDEA
S315080036F007B030BD00800A5000E100E008B5FFF7CA
S31508003700ABFF014B986908BD00800A5038B50446DE
S3150800371000F0ECFE0546FFF79FFF104B022C9A6956
S315080037208CBFA418D41C2046FEF7CCFFB4F1FF3F8B
S315080037302CBF2246621E01210020FEF7DFFE284626
S3150800374000F0D8FE064A137833B104498B6C43F06F
S3150800375002038B640023137038BD00BF00800A5033
S3150800376094100020F8B5044600F0C0FEFFF774FF79
S31508003770164B07469D6900F02AFF06460020FEF70D
S3150800378095FE830704D4731B032B01D8AE420FD1D1
S315080037900021631B022B98BFEC1C0846B4F1FF3FBF
S315080037A02CBF2246621EFEF7A9FE022000F013FF78
S315080037B0384600F09FFE064A137833B103498B6CEE
S315080037C043F001038B6400231370F8BD00800A5090
S315080037D095100020830700F0010109D50122064B48
S315080037E041F002011A70054A936C23F001039364B1
S315080037F00020FEF73FBE00BF9510002000800A504B
S31508003800830742BF0222014B1A64704700900A5090
S315080038100A4B10B5D3F8403203F00303013B012BE2
S315080038200BD800F063FE044601210220FFF706F9D3
S315080038302046BDE8104000F05DBE10BD0080005077
S3150800384010B50446FCF744FF4FF47A729042B0FB79
S31508003850F2F105D23621BDE810400C4800F05CBDF7
S315080038600B4BB3FBF1F30B49884201D93C21F2E734
S3150800387002FB04F0B0FBF3F0022806D9BDE81040BD
S315080038800323B0FBF3F0FCF773BC10BD2B4A00080A
S3150800389040420F00E7CD9A3B70B54FF0FF0C4CF451
S315080038A0E06C1CEA11541DBF1CEA135594EA0C0F70
S315080038B095EA0C0F00F0DEF82C4481EA030621EAAB
S315080038C04C5123EA4C5350EA013518BF52EA0335E6
S315080038D041F4801143F4801338D0A0FB02CE4FF098
S315080038E00005E1FB02E506F00042E0FB03E54FF0C8
S315080038F00006E1FB03569CF0000F18BF4EF0010EC0
S31508003900A4F1FF04B6F5007F64F5407404D25FEABB
S315080039104E0E6D4146EB060642EAC62141EA55516E
S315080039204FEAC52040EA5E504FEACE2EB4F1FD0CB0
S3150800393088BFBCF5E06F1ED8BEF1004F08BF5FEA2E
S31508003940500E50F1000041EB045170BD06F00046E0
S3150800395046EA010140EA020081EA0301B4EB5C048D
S31508003960C2BFD4EB0C0541EA045170BD41F4801185
S315080039704FF0000E013C00F3AB8014F1360FDEBFAA
S31508003980002001F0004170BDC4F10004203C35DA86
S315080039900C341BDC04F11404C4F1200500FA05F309
S315080039A020FA04F001FA05F240EA020001F00042AA
S315080039B021F0004110EBD37021FA04F642EB060120
S315080039C05EEA430E08BF20EAD37070BDC4F10C044A
S315080039D0C4F1200500FA04F320FA05F001FA04F20E
S315080039E040EA020001F0004110EBD37041F10001FA
S315080039F05EEA430E08BF20EAD37070BDC4F1200505
S31508003A0000FA05F24EEA020E20FA04F301FA05F26C
S31508003A1043EA020321FA04F001F0004121FA04F214
S31508003A2020EA020000EBD3705EEA430E08BF20EAE4
S31508003A30D37070BD94F0000F0FD101F0004640001E
S31508003A4041EB010111F4801F08BF013CF7D041EAA0
S31508003A50060195F0000F18BF704703F000465200A4
S31508003A6043EB030313F4801F08BF013DF7D043EA75
S31508003A700603704794EA0C0F0CEA135518BF95EA2B
S31508003A800C0F0CD050EA410618BF52EA4306D1D1B2
S31508003A9081EA030101F000414FF0000070BD50EAD1
S31508003AA0410606BF1046194652EA430619D094EA5B
S31508003AB00C0F02D150EA013613D195EA0C0F05D145
S31508003AC052EA03361CBF104619460AD181EA030199
S31508003AD001F0004141F0FE4141F470014FF0000051
S31508003AE070BD41F0FE4141F4780170BD81F000419E
S31508003AF002E000BF83F0004330B54FEA41044FEAC5
S31508003B00430594EA050F08BF90EA020F1FBF54EA5F
S31508003B10000C55EA020C7FEA645C7FEA655C00F0FB
S31508003B20E2804FEA5454D4EB5555B8BF6D420CDDCC
S31508003B302C4480EA020281EA030382EA000083EA4F
S31508003B40010180EA020281EA0303362D88BF30BDEF
S31508003B5011F0004F4FEA01314FF4801C4CEA113145
S31508003B6002D0404261EB410113F0004F4FEA0333A4
S31508003B704CEA133302D0524263EB430394EA050F2F
S31508003B8000F0A780A4F10104D5F1200E0DDB02FA9E
S31508003B900EFC22FA05F2801841F1000103FA0EF232
S31508003BA0801843FA05F359410EE0A5F120050EF1F8
S31508003BB0200E012A03FA0EFC28BF4CF0020C43FA29
S31508003BC005F3C01851EBE37101F0004507D54FF036
S31508003BD0000EDCF1000C7EEB00006EEB0101B1F586
S31508003BE0801F1BD3B1F5001F0CD349085FEA3000CC
S31508003BF04FEA3C0C04F101044FEA445212F5800FD7
S31508003C0080F09A80BCF1004F08BF5FEA500C50F173
S31508003C10000041EB045141EA050130BD5FEA4C0C56
S31508003C20404141EB0101013C28BFB1F5801FE9D2B3
S31508003C3091F0000F04BF01460020B1FA81F308BFD6
S31508003C402033A3F10B03B3F120020CDA0C3208DDA2
S31508003C5002F1140CC2F10C0201FA0CF021FA02F17D
S31508003C600CE002F11402D8BFC2F1200C01FA02F1ED
S31508003C7020FA0CFCDCBF41EA0C019040E41AA2BF12
S31508003C8001EB0451294330BD6FEA04041F3C1CDADA
S31508003C900C340EDC04F11404C4F1200220FA04F0FA
S31508003CA001FA02F340EA030021FA04F345EA0301A4
S31508003CB030BDC4F10C04C4F1200220FA02F001FA66
S31508003CC004F340EA0300294630BD21FA04F02946E8
S31508003CD030BD94F0000F83F4801306BF81F4801181
S31508003CE00134013D4EE77FEA645C18BF7FEA655CF4
S31508003CF029D094EA050F08BF90EA020F05D054EAC6
S31508003D00000C04BF1946104630BD91EA030F1EBFCA
S31508003D100021002030BD5FEA545C05D140004941CE
S31508003D2028BF41F0004130BD14F580043CBF01F5C1
S31508003D30801130BD01F0004545F0FE4141F47001A7
S31508003D404FF0000030BD7FEA645C1ABF1946104682
S31508003D507FEA655C1CBF0B46024650EA013406BF83
S31508003D6052EA033591EA030F41F4002130BD00BF42
S31508003D7090F0000F04BF0021704730B54FF48064FF
S31508003D8004F132044FF000054FF0000150E700BF80
S31508003D9090F0000F04BF0021704730B54FF48064DF
S31508003DA004F1320410F0004548BF40424FF00001CC
S31508003DB03EE700BF42004FEAE2014FEA31014FEA0F
S31508003DC002701FBF12F07F4393F07F4F81F060515E
S31508003DD0704732F07F4208BF704793F07F4F04BFA9
S31508003DE041F40021704730B54FF4607401F0004586
S31508003DF021F000411CE700BF50EA010208BF7047E6
S31508003E0030B54FF000050AE050EA010208BF7047D6
S31508003E1030B511F0004502D5404261EB41014FF43F
S31508003E20806404F132045FEA915C3FF4D8AE4FF047
S31508003E3003025FEADC0C18BF03325FEADC0C18BF2A
S31508003E40033202EBDC02C2F1200300FA03FC20FA7B
S31508003E5002F001FA03FE40EA0E0021FA02F11444C8
S31508003E60BDE600BF4A0011D212F5001211D20DD5D7
S31508003E706FF47873B3EB62520ED44FEAC12343F062
S31508003E80004343EA505323FA02F070474FF000000C
S31508003E90704750EA013002D14FF0FF3070474FF0BB
S31508003EA00000704753B94AB9002908BF00281CBF4B
S31508003EB04FF0FF314FF0FF3000F082B9ADF1080C3A
S31508003EC06DE904CE00F006F8DDF804E0DDE902232A
S31508003ED004B070472DE9F04F099D04460F46002BA4
S31508003EE048D18A42944661D9B2FA82F343B1C3F102
S31508003EF020019F4002FA03FC9C4020FA01F10F437F
S31508003F004FEA1C411FFA8CFE220CB7FBF1F601FBA7
S31508003F10167706FB0EF042EA0742904208D91CEBD8
S31508003F20020206F1FF3702D2904200F237813E467E
S31508003F30121AA4B2B2FBF1F001FB102200FB0EFE2E
S31508003F4044EA0244A64508D91CEB040400F1FF32F2
S31508003F5002D2A64500F21C81104640EA0640A4EBB0
S31508003F600E0400261DB1DC400023C5E90043314696
S31508003F70BDE8F08F8B4209D9002D00F0FD800026A0
S31508003F80C5E9000130463146BDE8F08FB3FA83F63D
S31508003F90002E4BD18B42C0F0F280824240F2EF8075
S31508003FA03046002DE3D0C5E90047E0E702B9FFDE59
S31508003FB0B2FA82F3002B40F09D80891A4FEA124E1E
S31508003FC097B20126200CB1FBFEF20EFB121140EA55
S31508003FD0014107FB02F088420FD91CEB010102F1EF
S31508003FE0FF382CBF4FF001094FF00009884203D96A
S31508003FF0B9F1000F00F0CF804246091AA4B2B1FB0E
S31508004000FEF00EFB101100FB07F744EA0144A74235
S3150800401008D91CEB040400F1FF3102D2A74200F2D2
S31508004020B4800846E41B40EA02409BE7C6F1200735
S31508004030B34001FA06F422FA07FCF940B2404CEA0A
S31508004040030C20FA07F34FEA1C491C431FFA8CFE9F
S3150800405000FA06F3200CB1FBF9F809FB181140EA3F
S31508004060014108FB0EF088420FD91CEB010108F14B
S31508004070FF3A2CBF4FF0010B4FF0000B884203D9D3
S31508004080BBF1000F00F08D80D046091AA4B2B1FB2F
S31508004090F9F009FB101100FB0EFE44EA01418E45BA
S315080040A007D91CEB010100F1FF3401D28E457FD8F8
S315080040B0204640EA0840A1EB0E01A0FB02984145C4
S315080040C04C46C64602D306D14B4504D20138B9EB55
S315080040D0020468EB0C0E002D70D01A1B61EB0E0162
S315080040E022FA06F301FA07F7F14000261F43C5E94D
S315080040F000713CE702FA03FCC3F1200001FA03F25F
S3150800410021FA00F64FEA1C4E24FA00F11FFA8CF742
S315080041109C401143B6FBFEF00A0C0EFB106642EA01
S31508004120064200FB07F696420ED91CEB020200F186
S31508004130FF382CBF4FF001094FF00009964202D90B
S31508004140B9F1000F31D04046921B89B2B2FBFEF698
S315080041500EFB162241EA024106FB07F28A4207D9FC
S315080041601CEB010106F1FF3801D28A4223D84646E4
S31508004170891A46EA004625E72E462846F7E6841AAF
S3150800418061EB030301201F460BE76444023849E745
S3150800419064440238E1E6023A61442EE7023E62448C
S315080041A0C6E6A8F1020861446FE702386244CBE725
S315080041B0023861447DE7023E6144D9E72E46D6E6D9
S315080041C0704700BF08B5074B044613B1002100E04D
S315080041D000BF054B1868836A03B19847204600F06C
S315080041E029F800BF00000000644A000870B50D4DAC
S315080041F000260D4C641BA410A64209D10B4D0026BF
S315080042000B4C00F04BFA641BA410A64205D170BDF6
S3150800421055F8043B01369847EEE755F8043B013656
S315080042209847F2E798100020981000209810002070
S315080042309C100020FEE700BFFCF7E4B8FCF7C8B8FE
S3150800424000F040B808B5FCF71BFBFCF739FCFCF797
S3150800425097F8FCF7A3F8BDE8084000F04BB808B596
S3150800426000F02EF8FFF716F8BDE80840FEF7F0B99B
S31508004270704770477047704770477047012070470E
S315080042800120704708B5FFF7F9FF08BD10B5FEF71E
S315080042908BFD0446FFF7F4FF042804D0022808BF64
S315080042A00124204610BD0024FBE700234FF0010C33
S315080042B007B5CDE9003CFFF7D5F803B05DF804FB78
S315080042C00F20704708B50023042219460120FDF780
S315080042D0B7FE002008BD08B501213A20FCF73CFFCF
S315080042E0FFF7AEFFBDE80840FCF7E2B801213A2027
S315080042F0FCF732BF08B5082000F07DF8BDE8084095
S31508004300082000F084B8FEE7002070474FF400400C
S3150800431070474FF47A707047FEE7002303607047D2
S31508004320436803B1184722207047436903B1184709
S31508004330FF20704738B50D680C462B78022B0CD039
S3150800434069792879FCF73CFAB0FA80F040092870B8
S315080043502046BDE83840FCF771B838BD03681878C0
S31508004360704710B504682378022B15D06179207937
S31508004370FCF726FAA279012A15D1003818BF0120C0
S315080043804FF6E071638840EA430363F03F039BB24C
S315080043908B4202D12270638010BD4FF6DF729342C2
S315080043A0F9D10022F6E7002AF6D1B0FA80F04009E2
S315080043B02070F1E703681A78022A03D100225A808E
S315080043C0FCF728BA704713B504682378022B10D077
S315080043D0A379022B0BD100216079FCF789FB002316
S315080043E0627920791146CDE90033FDF7ADFD022348
S315080043F0237002B010BD4FF060420123D2F8001EB0
S3150800440003FA00F00843C2F8000E002070474FF088
S3150800441060410122D1F8003E02FA00F023EA0003C7
S31508004420C1F8003E00207047D0E900031847036929
S315080044300068184710B5044601213A20FCF78CFE9F
S31508004440A3782078B3FA83F3042261785B09FDF731
S31508004450F7FD002010BD034659789B7800780BB904
S31508004460FCF76EBAFCF794BA034659789B7800783D
S315080044700BB9FCF78DBAFCF763BA70B50546144656
S315080044800E4600F033F8296881EA040202EA0604B7
S315080044904C402C60BDE8704000F02CB808B5FCF71D
S315080044A029F9BDE808400021FCF72ABE0029CCBF3F
S315080044B001210021FCF724BE02214FF42070FDF7EC
S315080044C093BA10B5FCF704F90446FCF773FBC0F180
S315080044D002012046FFF7EAFF01210020FDF7E4FB71
S315080044E0FDF714FBBDE81040FCF79ABFEFF3108008
S315080044F072B6704700B962B67047EFF31180302381
S3150800450083F31188704780F31188704770477047A6
S31508004510704770477047704770B5054614460E4693
S31508004520FFF7E4FF296881EA040202EA06044C4020
S315080045302C60BDE87040FFF7DDBF704783695A06F7
S31508004540FCD5C16383699B06FCD5406AC0B2704737
S31508004550FEF722B9FEF758B907B5FFF7C7FF01906E
S31508004560FEF7CCF9019803B05DF804EBFFF7C2BF7C
S31508004570FFF7CEBF4FF4C870FEF7F4BA7047F0B530
S3150800458087B015461E460446059190B10027C761B7
S31508004590FEF7BAFEBDF834303A4602939DF830303D
S315080045A02046CDE9006305992B46FEF711FE07B0B4
S315080045B0F0BD2220FBE738B5FFF79FFF0546FFF75A
S315080045C09DF804462846FFF79EFF204638BD002181
S315080045D00846FDF77BBF00F00101830748BF41F09D
S315080045E002010020FDF738BF10B504460020FDF78C
S315080045F05DFF012C04D0022C05D1C0F3400010BD8C
S3150800460000F00100FBE70020F9E738B5FFF775FF72
S3150800461004460020FDF74AFF830700F0010548BF5E
S3150800462045F0020500F003010020FDF731FF28469A
S31508004630FEF754FF2046BDE83840FFF764BF3E202A
S31508004640FCF7B6BD08B5FBF74BFEFFF7FBFDFFF71A
S3150800465006FEFFF70DFEBDE80840FFF70ABE08B5DF
S31508004660FFF708FEFFF707FEFFF706FEBDE808405E
S31508004670FFF703BE08B5FFF7E5FFFFF7DDFDFFF718
S31508004680EEFFFFF7DBFDFEF77DFAF8E70244034687
S31508004690934200D1704703F8011BF9E7F8B500BF4C
S315080046A0F8BC08BC9E467047F8B500BFF8BC08BC05
S315080046B09E467047781000201508000863430008D6
S315080046C0B5430008C74300085D4300088010002072
S315080046D01508000863430008B5430008C7430008E7
S315080046E05D4300088C100020354400085744000834
S315080046F069440008E10900082D0A00088F10002007
S31508004700354400085744000869440008E1090008D0
S315080047102D0A0008050000000000000040420F00B6
S315080047200501000000000000000000000000000075
S315080047306765636B6F5F73646B5F342E332E312F3F
S31508004740706C6174666F726D2F656D6C69622F6926
S315080047506E632F656D5F6770696F2E6800676563A6
S315080047606B6F5F73646B5F342E332E312F706C6101
S3150800477074666F726D2F6472697665722F627574CE
S31508004780746F6E2F7372632F736C5F73696D706CC1
S31508004790655F627574746F6E2E63006765636B6F11
S315080047A05F73646B5F342E332E312F706C617466C1
S315080047B06F726D2F656D6C69622F7372632F656DED
S315080047C05F636D752E63006765636B6F5F73646BFC
S315080047D05F342E332E312F706C6174666F726D2FB5
S315080047E0656D6C69622F7372632F656D5F636F7297
S315080047F0652E63006765636B6F5F73646B5F342E4A
S31508004800332E312F706C6174666F726D2F656D6C07
S3150800481069622F7372632F656D5F656D752E630010
S315080048206765636B6F5F73646B5F342E332E312F4E
S31508004830706C6174666F726D2F656D6C69622F6935
S315080048406E632F656D5F6275732E68006765636BAF
S315080048506F5F73646B5F342E332E312F706C617407
S31508004860666F726D2F656D6C69622F7372632F6543
S315080048706D5F6770696F2E63006765636B6F5F7343
S31508004880646B5F342E332E312F706C6174666F72D1
S315080048906D2F656D6C69622F7372632F656D5F701E
S315080048A072732E63006765636B6F5F73646B5F3447
S315080048B02E332E312F706C6174666F726D2F656D95
S315080048C06C69622F7372632F656D5F75736172749D
S315080048D02E63006765636B6F5F73646B5F342E339B
S315080048E02E312F706C6174666F726D2F70657269E8
S315080048F070686572616C2F7372632F706572697068
S31508004900686572616C5F7379737274632E630001F4
S3150800491003100101090300000B0000000C00000051
S315080049200300000000002020000000000200000034
S315080049303C3C3C00000000000000000000000000B5
S31508004940012600000400000000000000000100002D
S31508004950000000006765636B6F5F73646B5F342EDE
S31508004960332E312F706C6174666F726D2F7365729A
S31508004970766963652F706F7765725F6D616E6167C3
S3150800498065722F7372632F736C5F706F7765725FD2
S315080049906D616E616765722E63000104104067657C
S315080049A0636B6F5F73646B5F342E332E312F706CBD
S315080049B06174666F726D2F736572766963652F70A1
S315080049C06F7765725F6D616E616765722F7372636B
S315080049D02F736C5F706F7765725F6D616E61676567
S315080049E0725F68616C5F73322E63006765636B6F15
S315080049F05F73646B5F342E332E312F706C6174666F
S31508004A006F726D2F736572766963652F736C656552
S31508004A107074696D65722F7372632F736C5F736C34
S31508004A2065657074696D65722E63006765636B6F83
S31508004A305F73646B5F342E332E312F706C6174662E
S31508004A406F726D2F736572766963652F7564656C11
S31508004A5061792F7372632F736C5F7564656C617906
S30D08004A602E6300001810002067
S30D08004A6850B7FF7F01000000B2
S31108004A707C4A0008001000202800000006
S31508004A7CF4010000F4010000C0EA2101C0EA21019A
S31508004A8CC017530200800000000000000000000060
S31508004A9C00000000000000000000000000000000FC
S31508004AAC00000000000000000000000000000000EC
S31508004ABC00000000000000000000000000000000DC
S31508004ACC00000000000000000000000000000000CC
S31508004ADC00000000000000000000000000000000BC
S31508004AEC00000000000000000000000001010200A8
S31508004AFC0000000001030200FFFFFFFF0102010393
S31508004B0C03012801010100009D0100087901000834
S705080005C924
