S02B00007673636F64652D6275696C642F626C696E6B5F626172656D6574616C5F646576426F6172642E73336E
S3150800000000100020C9050008734300087343000860
S3150800001073430008734300087343000873430008DA
S3150800002073430008734300087343000873430008CA
S3150800003073430008734300087343000873430008BA
S3150800004073430008734300087343000873430008AA
S31508000050734300087343000873430008734300089A
S31508000060734300087343000873430008734300088A
S31508000070734300087343000873430008734300087A
S31508000080734300087343000873430008734300086A
S31508000090734300087343000873430008734300085A
S315080000A07343000873430008B10B00088D0B000862
S315080000B0734300087343000873430008734300083A
S315080000C0734300087343000873430008734300082A
S315080000D0734300087343000873430008734300081A
S315080000E0734300087343000873430008734300080A
S315080000F073430008C14500087343000873430008AA
S3150800010073430008734300087343000873430008E9
S3150800011073430008734300087343000873430008D9
S3150800012073430008734300087343000873430008C9
S3150800013073430008734300087343000873430008B9
S3150800014073430008734300087343000873430008A9
S315080001507343000873430008774600087343000892
S315080001607343000873430008734300087343000889
S31508000170013800D0FCE7704710B5054C237833B931
S31508000180044B13B1044800E000BF0123237010BDDF
S31508000190A810002000000000F04A000808B5034B2C
S315080001A01BB10349034800E000BF08BD000000007A
S315080001B0AC100020F04A0008A3F5803A704700BF4B
S315080001C0174B002B08BF134B9D46FFF7F5FF002181
S315080001D08B460F461348144A121A04F082FA0E4B3D
S315080001E0002B00D098470D4B002B00D098470020D5
S315080001F0002104000D000D48002802D00C4800E03C
S3150800020000BF04F029F82000290003F067FB04F07A
S315080002100FF800BF00000800000000000000000002
S3150800022000100020A8100020AC13002000000000D9
S315080002300000000010B5274C01F046FA01F066FCF4
S31508000240236F23F0070343F00303236704F06FF9D2
S31508000250214B00209B6ADB015EBF4FF480321F4BA7
S315080002609A62D4F8203123F0070343F00203C4F856
S315080002702031D4F8283123F0070343F00203C4F8E9
S315080002802831D4F8403123F0030343F00203C4F8BD
S315080002904031D4F8603123F0030343F00203C4F875
S315080002A06031D4F8403223F0030343F00203C4F864
S315080002B04032D4F8003223F0070343F00203C4F8AF
S315080002C00032D4F8083223F0070343F00203C4F8D7
S315080002D0083210BD008000500040005A0060005AE5
S315080002E04FF480302049214A4B6E10B55066486E4F
S315080002F04FF000414AF6CD3451661D4903F4803368
S315080003004A6C0C6402F001024C6BE407FCD401242D
S3150800031018494C60A1F500510C6BE407FCD50AB1ED
S31508000320154A0A640028A2BF4FF00041134A5166D5
S315080003301BB94FF48032114B5A6602F07BF904F070
S315080003400BF802F001F902F061F904F037F902F04E
S3150800035023F9FFF76FFF02F00DF903F0F2FFBDE88E
S31508000360104002F049BB00BF0080005000900050CA
S3150800037000400950006009503254FFFF00A00050A9
S3150800038008B5044804F002F8BDE80840024803F03E
S31508000390FDBF00BF0C4700082447000808B50448FD
S315080003A004F078F8BDE80840024804F073B800BFC6
S315080003B03C470008544700080122014B1A70704751
S315080003C0921300200122014B1A70704793130020E4
S315080003D010B5084C237823B1074804F05EF80023CB
S315080003E02370064C237823B1054804F056F80023F9
S315080003F0237010BD921300203C4700089313002079
S315080004005447000808B5074B074A1968074803F018
S3150800041082FF074B074A19680748BDE8084003F0FA
S315080004207ABF00BF00100020B9030008C4100020DE
S3150800043004100020C5030008E410002010B5044687
S3150800044003F0A9FF012817D10C4B9C4214D10C4C80
S315080004500C4802F07BFF206803F0C0FC00220A4B20
S3150800046003F050FA03F034FD084A20600146BDE85F
S315080004701040044803F04FBF10BD00BF0C470008EA
S3150800048000100020C41000200000E03FB903000857
S315080004901022024BC3F8A020704700BF00D00350BB
S315080004A01022024BC3F8A020704700BF00E003509B
S315080004B070B5404D88B001AC0FCD0FC495E8070064
S315080004C084E80700012401213A2000F055FE3A4E3F
S315080004D00121292000F050FE384B304601A903932C
S315080004E08DF8124001F002FF23462146042202201D
S315080004F001F0B6FD022122460846002301F0B0FDB0
S31508000500234604220321022001F0AAFD04222346E1
S315080005101146022001F0A4FD294D2A4B4FF44870DC
S31508000520C5F8AC374FF00213C5F8A837A3F58033E2
S31508000530C5F8B0371C23C5F8983703F0A3F914207B
S31508000540FFF7AEFF03F09EF92320FFF7A1FF03F0A4
S3150800055099F9B9213046FFF7A3FF04F025F8FFF70C
S3150800056097FF002321461A46022001F079FD002351
S3150800057002211A46084601F073FD2346002203218C
S31508000580022001F06DFD234600220421022001F01D
S3150800059067FD304601F07EFE00212920C5F8AC171C
S315080005A0C5F8A817C5F8B017C5F8981700F0E4FD00
S315080005B008B070BD6C47000800C0055000127A00EC
S315080005C000C003500200030008B500F02DF8124BD6
S315080005D012498B4212D30020114B12498B4218D371
S315080005E0FFF7EEFD186850F82240586840F8224098
S315080005F0013298688242F5D30C33EAE70022F8E71D
S315080006001C6844F8220001325C68A242F8D3083319
S31508000610E4E70022F8E700BFF84A0008044B0008A0
S31508000620044B0008044B00084FF480414FF0FF309C
S31508000630114B124A10B59A60D3F8882042F470021A
S31508000640C3F888200E4A91660E4901F500521066D5
S315080006500D4850660220C3F8D000BFF34F8FBFF392
S315080006606F8F01244FF440330848C0F88041D360A7
S3150800067004600B6110BD00BF00ED00E0000000083B
S3150800068000900050008000447FFF7F0100E100E0F9
S31508000690014B1868704700BF0C100020084B1B6FF1
S315080006A003F00703022B04D0032B05D0012B05D03A
S315080006B0FEE7044B18687047034BFBE7034870478F
S315080006C0008000500C10002010100020002D310171
S315080006D008B5FFF7E3FF054B1B6FC3F3033301337D
S315080006E0B0FBF3F0024B186008BD00BF0080005055
S315080006F0081000200048704700B4C404014B18686D
S31508000700704700BF10100020054B1860054B1B6F83
S3150800071003F00703032B01D1FFF7DABF704700BFC9
S31508000720101000200080005000487047002D31014D
S315080007304FF0B4439868C0F304400C2822D8DFE889
S3150800074000F0092121212121071719211B1D1F004E
S315080007500F4870479B6803F04073B3F1807F13D04E
S31508000760B3F1007F12D00B4A002B08BF1046704722
S31508000770094870470948704709487047094870474B
S31508000780094870470020704708487047084870476E
S31508000790405DC60000093D000024F400C0EA2101BE
S315080007A080BA8C010048E801005A620280841E0063
S315080007B040420F00014B1868704700BF1410002014
S315080007C038B504460D4601B118B93721034803F078
S315080007D0D9FD23682B60256038BD00BF884700080F
S315080007E038B50D460446C0B1012819D0022819D0DB
S315080007F0032803D13F23EB40DB0704D440F2CF3173
S315080008000A4803F0BFFD3020142310FB0434084BBC
S31508000810E058E84000F0010038BD40F2FF73EAE70F
S315080008200F23E8E740F2FF33E5E700BFB7470008C4
S3150800083030C0035037B50468012105463A2000F058
S315080008409BFC002301226179207901F009FC61797A
S315080008502079FFF7C5FFB0FA80F35B092370A37907
S31508000860022B15D100F03CF92A460B49607900F0B5
S3150800087061F9FF28054603D15C21084803F082FD8B
S315080008800123617920792A46CDE9003301F06CFB12
S31508000890002003B030BD00BFA1430008E4470008AC
S315080008A008B501213A2000F067FC03210123042240
S315080008B0002001F0D5FB002003F075FE0122214B34
S315080008C04FF46070C3F8442400F082FC1E4B00F518
S315080008D0D520D3F8F02000F2FC4042F00102C3F81C
S315080008E0F020D3F8FC2042F08072C3F8FC20174AA7
S315080008F0A3F55D431A60164B0222B0FBF3F0154BC5
S3150800090001381861C3F8F0204FF48072C3F8042345
S315080009104FF06043104A0020C3F8B02F0F4AC3F8BF
S31508000920802ED3F8002E42F48072C3F8002EFF22E0
S3150800093083F82020D3F8002E22F48072C3F8002E04
S3150800094008BD00BF00D0035000ED00E0FF030040E3
S31508000950F8590D00000004E055CEACC509000100A9
S3150800096038B50D460446B0B1012817D0022817D06D
S31508000970032803D13F23EB40DB0704D440F2FE31C2
S31508000980094803F0FFFC302001214443074B01FAD4
S3150800099005F51D5138BD40F2FF73ECE70F23EAE772
S315080009A040F2FF33E7E700BFB747000840E00350CF
S315080009B038B50D460446B0B1012817D0022817D01D
S315080009C0032803D13F23EB40DB0704D440F22D4133
S315080009D0094803F0D7FC302001214443074B01FAAC
S315080009E005F51D5138BD40F2FF73ECE70F23EAE722
S315080009F040F2FF33E7E700BFB747000840D003508F
S31508000A0038B504784578ACB1012C16D0022C16D02E
S31508000A10032C03D13F23EB40DB0704D44FF4896151
S31508000A20084803F0AFFC302301225C43064BAA407A
S31508000A301A5138BD40F2FF73EDE70F23EBE740F29A
S31508000A40FF33E8E7B747000840F0035070B505786C
S31508000A5004464678E5B1012D1DD0022D1DD0032D83
S31508000A6003D13F22F240D30704D44FF483610C48E4
S31508000A7003F088FC1023302212FB0535094BEB588E
S31508000A80F34003F00100A3780BB980F0010070BDB4
S31508000A9040F2FF72E6E70F22E4E740F2FF32E1E7B1
S31508000AA0B747000830C0035070B5044601250B4E01
S31508000AB004B970BD94FAA4F0B0FA80F005FA00F310
S31508000AC006EB001224EA03045368002BF0D0117BCE
S31508000AD011B191689847EBE79847E9E704110020B8
S31508000AE008B51A2001F034F828B14FF08062074B98
S31508000AF0C3F880211A601B2001F02AF828B14FF0AC
S31508000B000062024BC3F880211A6008BD00E100E0CC
S31508000B1038B505460C4603F026FD0022044B03EBC8
S31508000B2005135C601A73BDE8384003F022BD00BFA8
S31508000B3004110020F8B505460F46164603F013FDC6
S31508000B40104B05F0FC02D3F824140023EC1804F02B
S31508000B500304144321FA04FC1CF0010F07D00133E7
S31508000B60042BF3D1FF2403F004FD2046F8BDFF2C27
S31508000B70F9D00122044B03EB0413C3E901761A7377
S31508000B80F1E700BF00C0035004110020074BD3F85B
S31508000B902404D3F8202403F50053104000F0553000
S31508000BA020F05020C3F82004FFF77EBF00C0035092
S31508000BB0074BD3F82404D3F8202403F50053104038
S31508000BC000F0AA3020F0A020C3F82004FFF76CBF7D
S31508000BD000C00350044BD3F88420D206FBD4D3F8C4
S31508000BE08400C0F3811070470040005038B51A4B96
S31508000BF00546D3F820010C4600F00700062821D840
S31508000C00DFE800F028040C1410181C00FFF740FD5C
S31508000C10052305B1286004B1236038BDFFF76EFDD2
S31508000C200323F6E7FFF784FD0723F2E7FFF77CFDCA
S31508000C300223EEE7FFF72CFD0623EAE7FFF75EFD42
S31508000C400423E6E7054841F2252103F09BFB002330
S31508000C501846DEE70123DCE700800050224800083A
S31508000C6038B5194B0546D3F828310C4603F0070367
S31508000C70013B052B20D8DFE803F003131B0F0B17E6
S31508000C80FFF706FD052305B1286004B1236038BDCA
S31508000C90FFF7FEFC0623F6E7FFF74AFD0723F2E710
S31508000CA0FFF72CFD0323EEE7FFF728FD0423EAE709
S31508000CB0FFF73AFD0223E6E7044841F22D0103F067
S31508000CC061FB00231846DEE7008000502248000832
S31508000CD0F7B50027144B0197D3F88041064604F070
S31508000CE00304022C0D4614D0032C0DD0012C14D16C
S31508000CF0394601A8FFF77AFF0F240EB1019B33602E
S31508000D0005B12C6003B0F0BDFFF712FD0724019072
S31508000D10F3E7FFF709FD0190EFE741F27A3103485F
S31508000D2003F030FB3C46E8E7008000502248000804
S31508000D3038B50F4B0546D3F890320C4603F003033B
S31508000D40012B09D0022B0BD1FFF7F2FC072305B1C3
S31508000D50286004B1236038BDFFF7E6FC0223F6E7F6
S31508000D60044841F2191103F00DFB00231846EEE77B
S31508000D700080005022480008002337B50193194B1C
S31508000D800546D3F820320C4603F00703042B1FD878
S31508000D90DFE803F025030F141900002101A8FFF767
S31508000DA05FFF11230DB1019A2A6004B1236003B0D5
S31508000DB030BDFFF7BDFC07230190F3E703F0DCFA2B
S31508000DC00A230190EEE7FFF7F5FC09230190E9E70E
S31508000DD040F6EC71044803F0D5FA0023E2E7012354
S31508000DE0E0E700BF008000502248000838B5104BE5
S31508000DF00546D3F840310C4603F00303022B0BD00B
S31508000E00032B0DD0012B0FD103F0B6FA0A2305B137
S31508000E10286004B1236038BDFFF7CCFC0923F6E748
S31508000E2003F0ADFA0B23F2E701230020EFE700BF3A
S31508000E3000800050002337B50193184B0546D3F8B8
S31508000E4060320C4603F00703013B032B1FD8DFE88B
S31508000E5003F0020E1914002101A8FFF7C7FE0F239D
S31508000E600DB1019A2A6004B1236003B030BD002198
S31508000E7001A8FFF7BBFF1023F2E7FFF759FC07238A
S31508000E800190EDE7FFF750FC02230190E8E741F2F5
S31508000E909101034803F076FA0023E1E70080005049
S31508000EA02248000873B500240F4B0194D3F870321A
S31508000EB0064603F00303012B0D4607D0022B11D07B
S31508000EC041F2EF01094803F05DFA04E0214601A862
S31508000ED0FFF78CFF10240EB1019B336005B12C601F
S31508000EE002B070BD1424F6E70080005022480008BE
S31508000EF038B5164B0546D3F800020C4600F0070035
S31508000F00042819D8DFE800F020030B0F130003F0BC
S31508000F1033FA0A2305B1286004B1236038BDFFF708
S31508000F2049FC0923F6E703F02AFA0B23F2E7FFF751
S31508000F30CFFB0E23800AEDE7054841F2384103F05E
S31508000F4021FA00231846E5E70123E3E7008000506D
S31508000F502248000838B5164B0546D3F808020C4651
S31508000F6000F00700042819D8DFE800F020030B0F6B
S31508000F70130003F001FA0A2305B1286004B12360BF
S31508000F8038BDFFF717FC0923F6E703F0F8F90B233A
S31508000F90F2E7FFF79DFB0E23800AEDE7054841F2CD
S31508000FA0704103F0EFF900231846E5E70123E3E76C
S31508000FB0008000502248000838B5104B0546D3F883
S31508000FC040320C4603F00303022B0BD0032B0DD043
S31508000FD0012B0FD103F0D0F90A2305B1286004B11B
S31508000FE0236038BDFFF7E6FB0923F6E703F0C7F9E8
S31508000FF00B23F2E701230020EFE700BF0080005033
S3150800100038B5124B0546D3F850320C4603F00303A5
S31508001010022B0FD0032B05D0012B0FD103F0ACF90F
S315080010200A2302E003F0ABF90B2305B1286004B1EB
S31508001030236038BDFFF7BEFB0923F6E7044841F2F3
S315080010405D0103F09FF900231846EEE70080005083
S315080010502248000838B5104B0546D3F860310C46CF
S3150800106003F00303022B0BD0032B0DD0012B0FD15A
S3150800107003F082F90A2305B1286004B1236038BD5C
S31508001080FFF798FB0923F6E703F079F90B23F2E754
S3150800109001230020EFE700BF00800050B0F5207F55
S315080010A010B534D009D8B0F5007F2AD003D898B146
S315080010B0B0F5C07F10D0002421E0B0F5607FFAD1EA
S315080010C0154BD3F88030C3F301149B0617D5032CB0
S315080010D015D040F285210FE00F4B1C6F230B13F040
S315080010E00E0FC4F303340AD0032C08D0072C06D0FD
S315080010F00F2C04D040F27521084803F043F9601C10
S3150800110010BD054BD3F89040C4F30464F7E7024BCF
S315080011101C6FC4F38024F2E70080005022480008C0
S315080011204FF4803238B5104B04469A6600200D46B7
S31508001130FFF7B4FF41F671320C4B6043DC69DA63A2
S315080011405A6804F4803422F440125DB9084988428A
S315080011508CBF4FF480100020104358600CB1002259
S31508001160DA6338BD0349F2E70090005000000350E7
S31508001170005A6202002D310170B5440905460E4633
S315080011800ED14FF447710F4803F0FCF805F01F0520
S31508001190AEB104F58053012000FA05F51D6070BD57
S315080011A0012C08D0022C08D040F22631054803F05D
S315080011B0E9F80024EAE7044CE8E7044CE6E704F516
S315080011C00053E8E722480008648000506880005011
S315080011D0002130B5B0F5807F85B00446019100F056
S315080011E0FE806BD8002800F0DA80A0F12004602C7D
S315080011F074D8602C72D8DFE814F0D200D500D2007B
S31508001200D500E800E800E800E800E800D500ED00B1
S315080012107D0003019D007D00D500D500D500710035
S315080012207100710071007100710071000301D50031
S31508001230D500D5001B010801D500710071007100A9
S315080012407100710071007100710071007100710008
S3150800125071000D01E800D200D200D200B0007D0076
S315080012607D00B80012019200C700C7007100710026
S3150800127071007100710071007100710071007100D8
S3150800128071007100710071007100710071007100C8
S3150800129071007100710071007100710071007100B8
S315080012A071007100710071007100710071007100A8
S315080012B071007100710071007100CC00B0F5E06F2B
S315080012C000F0A3803BD8B0F5607F75D01DD8B0F587
S315080012D0007F71D008D8B0F5C07F60D040F2794160
S315080012E0564803F04FF857E0B0F5207F5AD0B0F5CE
S315080012F0407FF3D1FFF7ECF904464FF42070FFF76F
S31508001300CDFEB4FBF0F0400845E0B0F5B06F61D013
S315080013100AD8B0F5806F58D0B0F5A06FDED100219D
S3150800132001A8FFF729FD37E0B0F5C06F68D0B0F522
S31508001330D06FD3D1002101A8FFF7DAFD2CE0B0F574
S31508001340286F6CD016D8B0F5186F63D00AD8B0F5E8
S31508001350F06F6DD0B0F5106FC0D1002101A8FFF76E
S31508001360F9FD19E0B0F5206FB8D1002101A8FFF703
S3150800137061FD11E0B0F5306F56D0AFD3B0F5386FD8
S315080013803ED0B0F5406FA9D1002101A8FFF768FC4F
S3150800139002E0FFF783F90190019805B030BDFFF729
S315080013A097F9F8E7FFF794F904464FF42070FFF72A
S315080013B075FEB4FBF0F0EEE7FFF770F90546204638
S315080013C0FFF76CFEB5FBF0F0E5E7002101A8FFF793
S315080013D00DFCE1E7002101A8FFF77AFCDCE74FF0F6
S315080013E0E02302911B695B0705D5FFF771F90290A7
S315080013F0029B0193D0E703A902A8FFF7F7FCF7E7DA
S31508001400002101A8FFF7F2FCC6E7002101A8FFF7B3
S31508001410D3FDC1E7002101A8FFF7F2FDBCE70021D3
S3150800142001A8FFF73FFDB7E701A8FFF781FCB3E77F
S31508001430002101A8FFF70EFEAEE700BF224800080C
S3150800144008B58020FFF7C4FE034B98429EBF4FF4B1
S315080014508032024B1A6708BD005A620200A000508B
S315080014601FB50023B0F5807F019300F0D68076D8AB
S31508001470582867D8382805D82438092848D940F282
S315080014805A51BEE039381F28F9D801A353F820F07D
S315080014903D1600087F1400087F1400087F14000812
S315080014A0471600088D1600087F1400087F140008E8
S315080014B07F1400087F1400087F1400087F140008B2
S315080014C07F1400087F1400087F1400087F140008A2
S315080014D07F1400087F1400087F1400089716000878
S315080014E0851500087F1400087F1400087F1400087B
S315080014F0C91500087F1400087F140008A116000803
S31508001500AB16000883160008EB150008EB15000853
S315080015100928B4D801A353F820F000BF85150008A0
S315080015208515000885150008851500088515000825
S315080015307F1400080B1600087F1400083D160008E3
S31508001540A315000880289AD15D4B1B6F03F007038B
S31508001550013B032B53D8DFE803F0504D8890B0F5D4
S31508001560086F75D022D8B0F5C06F67D00FD8B0F520
S31508001570A06F00F08680B0F5B06F46D0B0F5806FEA
S315080015807FF47DAF002001A9FFF730FB41E0B0F5FD
S31508001590E06F7BD0B0F5F06F55D0B0F5D06F7FF423
S315080015A06EAF002001A9FFF7A3FC32E0B0F5286F63
S315080015B07BD00ED8B0F5186F6DD0B0F5206F6FD010
S315080015C0B0F5106F7FF45BAF002001A9FFF7C2FCEE
S315080015D01FE0B0F5306F6DD0FFF451AFB0F5386F3E
S315080015E02CD0B0F5406F7FF44AAF002001A9FFF771
S315080015F037FB0EE0052301930BE00223FBE740F2DD
S31508001600AB41304802F0BEFE03E0002001A9FFF717
S315080016105FFB019805B05DF804FB02934FF0E023E9
S315080016201B695B0705D5FFF753F80C230393039B48
S31508001630E1E703A902A8FFF7D9FBF8E7002001A90B
S31508001640FFF7D4FBE5E7002001A9FFF703FDE0E774
S315080016501B4BD3F8003103F00303022B07D0032BEF
S3150800166009D0012B0BD1FFF749F80323C3E7FFF78E
S31508001670A1F80923BFE702F07DFE0823BBE7012393
S31508001680B9E7002001A9FFF777FBC2E7002001A907
S31508001690FFF792FCBDE7002001A9FFF7B1FCB8E708
S315080016A0002001A9FFF7C6FBB3E7002001A9FFF751
S315080016B0F9FBAEE7184601A9FFF73AFBA9E700BF11
S315080016C000800050224800084FF48012034B5A66E7
S315080016D04FF48032024B9A62704700BF0090005068
S315080016E00050005A036870B50F2B044604D940F61B
S315080016F04631814802F046FE63680F2B04D940F64E
S3150800170049317D4802F03EFEA3680F2B04D940F606
S315080017104C31794802F036FE237B0F2B04D940F66C
S315080017204F31754802F02EFE637B0F2B04D940F625
S315080017305231714802F026FEA37B3F2B04D940F6AE
S3150800174055316D4802F01EFEE37B3F2B04D940F667
S315080017505831694802F016FE2369032B04D940F66E
S315080017605B31654802F00EFE6369032B04D940F627
S315080017705E31614802F006FEE369032B04D940F6A0
S3150800178061315D4802F0FEFD8020FFF769FE0328FF
S3150800179000F091804FF48012584B594D5A6645F621
S315080017A00E034FF0A062C5F88030564B9A624FF48C
S315080017B0803203F580539A62AB6DDA03FCD4AE6DC2
S315080017C016F08046FBD1D4E900231B0543EA0263E1
S315080017D0E27B4D481343227B43EA0243627B43EA9A
S315080017E00233A27B43EA82132B61AA69D4E9041364
S315080017F01B0643EA816302F000421343A27E4FF4BC
S3150800180040611343227E43EA0243627E43EA02238F
S31508001810AB614FF4006202F066FEE1692B6A0029AB
S315080018200CBF00220822E07E23F00F0343EA0103DF
S3150800183043EA800343EA0203314A344D13623BD13B
S3150800184094F82430916A94F82000DB000D4043EAAE
S31508001850401394F821102B4343EA011343F48033D1
S3150800186093622B4B916D33EA0101FBD14FF08071E6
S31508001870244881621369A56823F4700343EA055373
S3150800188013614FF00043836194F822300BB9214B62
S31508001890996294F823303BB94FF480321D4B9A6213
S315080018A0174A936D5B00FCD494F825301BB1144B92
S315080018B0194AC3F8802070BD022908D116614FF471
S315080018C07F41966115484FF4085202F00CFE0C4908
S315080018D094F822308A6A94F820001B06154043EAD9
S315080018E0401394F824202B4343EAC20394F8232098
S315080018F043EA02438B62D7E722480008009000506B
S315080019000040005A0050005A3840005AC7FFFEFEF1
S31508001910030001000060005AF1A7FFFF3440005A97
S31508001920014B93F9000070479A100020436810B5E0
S31508001930072B044604D940F67C512A4802F022FDBA
S31508001940A368032B04D940F67E51264802F01AFDF7
S315080019502378032B04D94FF45861224802F012FD6C
S3150800196094F90130002B04DA40F682511D4802F042
S3150800197009FD4FF400011C4A637851664FF4D151B2
S31508001980022002F5B832516218494F2B48604FF0D1
S31508001990010028BF4F2301F5805148601169C9032A
S315080019A0FCD4217843EA01235361D4E901131B01CE
S315080019B043EA0123617B0B43217B43EA410393609E
S315080019C0E37BA17B1B0143EA4113617C0B43217C2A
S315080019D043EA41035360A37C13B16FF4D1535362B6
S315080019E010BD00BF224800080090005000100250A9
S315080019F0014B1880704700BF92100020014B1880D9
S31508001A00704700BF90100020B0F5207F10B565D054
S31508001A100ED8B0F5007F4FD003D800B3B0F5C07F1D
S31508001A201DD040F2FF21BDE81040344802F0AABCA0
S31508001A30B0F5607FF5D14C1E012C06D9042904D0D7
S31508001A4040F2E2212D4802F09DFC2D4AD2F8803062
S31508001A5023F0300343EA0413C2F8803010BD10297E
S31508001A6001F1FF3404D8274B23FA01F1CB0704D43C
S31508001A7040F2B621214802F085FC02F045FD02F04D
S31508001A8051FD4FF48031204B1D4A1967136F23F41B
S31508001A90704343EA04331367FEF71AFE0446FFF75A
S31508001AA099F8C0F10201204602F036FD00F03EF832
S31508001AB0BDE81040FFF7C4BC4C1E1F2C04D940F2E9
S31508001AC0F3210E4802F05EFC0D4BD3F8901021F07E
S31508001AD0F85141EA0461C3F89010BFE74C1E012C87
S31508001AE004D940F2F921054802F04CFC044B196F61
S31508001AF021F4806141EA84211967AFE7224800088A
S31508001B0000800050160101000090005008B5012120
S31508001B10022000F081F802F0F7FC02F003FD4FF412
S31508001B208032014B1A6708BD0090005008B54FF483
S31508001B30C070FFF74DFBBDE80840044988428CBFDA
S31508001B40022101214FF42070FFF75EBF80F0FA02F0
S31508001B5038B5C5B24B2D044604D940F216310748AC
S31508001B6002F010FC064B640953F8240005F01F0523
S31508001B70E840C04300F0010038BD00BF4E480008E9
S31508001B8000E100E0024A536B0342FCD1704700BFF4
S31508001B9000400950044A4178536F23F4407343EADE
S31508001BA001235367704700BF004000500A4A10B52A
S31508001BB01369044643F00403136101F0F5F902F0D2
S31508001BC0DBFC30BF02F0D9FC01F002FA1CB9BDE813
S31508001BD01040FEF77DBD10BD00ED00E0084A10B5C7
S31508001BE01369044643F00403136101F0DDF930BFBD
S31508001BF001F0EEF91CB9BDE81040FEF769BD10BD4D
S31508001C0000ED00E0034A0179D36E23F030030B435D
S31508001C10D3667047004000502DE9F0410446264B34
S31508001C20D3F88420D006FBD4D3F88430C3F38113C9
S31508001C309C423ED0FEF732FD012C05460BD11F4BC8
S31508001C40984204D940F261711D4802F09BFB0121BC
S31508001C50284602F061FC02F07FFC4FF00072194B37
S31508001C6007465A66204602F08BFC4FF48063124EF4
S31508001C70621E9340DFF848803367736E9A0103D477
S31508001C80D6F884309B060AD5384602F069FC022C41
S31508001C900FD12846BDE8F041002102F03DBCD6F838
S31508001CA084309906E9D540F26F71404602F06AFB26
S31508001CB0E3E7BDE8F08100BF00400050005A620229
S31508001CC07B4800080060005007B518B90191FEF777
S31508001CD0E5FC0199064B1B7843B1064B984205D89B
S31508001CE0012003B05DF804EBFFF796BF0220F8E782
S31508001CF094130020005A62020278034B0121002047
S31508001D001A70FFF7E1BF00BF941300204FF000429E
S31508001D1038B5244B244C5A664AF6CD33656C0146D1
S31508001D2005F00105236430BB0120FFF72BFF63682C
S31508001D30DB0708D4002415B11B4B1C4A1A6402F0B1
S31508001D4020FC204638BD1A4B58600846194B226BB2
S31508001D50D20705D4984201D10724ECE70130F6E70B
S31508001D609842E7D1F8E70132236B13F0080305D050
S31508001D708A42F8D1F0E700220E49F5E78A42EBD00D
S31508001D8020210B4A91620121A2F580525160064931
S31508001D90084A886A800603D49342DDD00133F8E7FF
S31508001DA09342DEE700900050004009503254FFFF8E
S31508001DB00060095040420F004FF0004238B5164BFC
S31508001DC001465A664AF6CD33144C154A656C2364A7
S31508001DD043780B205B0043F00103D363FFF7D2FE81
S31508001DE063688A7823F4F87343EA02136360CA784F
S31508001DF04B7943EA0223A3600A798B7943EA0223E3
S31508001E0023610878FFF782FFEB0744BF054B23647D
S31508001E1002F0B7FB012038BD009000500040095081
S31508001E20004000503254FFFF0F2870B5044604D90D
S31508001E3040F6FC51134802F0A5FA4FF00042124B47
S31508001E4012495D6E03F580535A664AF6CD334E6CD9
S31508001E5080200B64FFF796FE0B6A23F00F030F2C06
S31508001E6094BF234343F00F030B62F30744BF084BA9
S31508001E700B64002DA2BF4FF00042064B5A6602F0D3
S31508001E8080FB70BD7B480008008000500040095068
S31508001E903254FFFF00A000501F2970B504460D46B6
S31508001EA0164603D99121074802F06CFA36B104F5B3
S31508001EB08054012101FA05F5256070BD04F500542A
S31508001EC0F7E700BFA748000838B50D460446B0B185
S31508001ED0012817D0022817D0032803D13F23EB4047
S31508001EE0DB0704D440F22D41094802F04BFA3020B2
S31508001EF001214443074B01FA05F51D5138BD40F24F
S31508001F00FF73ECE70F23EAE740F2FF33E7E700BF8A
S31508001F10B747000840D0035038B50D460446B0B15F
S31508001F20012817D0022817D0032803D13F23EB40F6
S31508001F30DB0704D440F2FE31094802F023FA3020C8
S31508001F4001214443074B01FA05F51D5138BD40F2FE
S31508001F50FF73ECE70F23EAE740F2FF33E7E700BF3A
S31508001F60B747000840E003502DE9F3470D461446ED
S31508001F701E4681469DF828809DF82C70002843D07F
S31508001F80012844D0022844D0032803D13F23EB403C
S31508001F90DB0703D4BF21294802F0F4F985EA0403D4
S31508001FA033F0030303D0C121244802F0EBF9072CD0
S31508001FB04FF0030105F003052ED84FEA840A01FA0B
S31508001FC00AF11F4809FA0AF2019102F0DBFA0199AF
S31508001FD01C4805FA0AF202F0D5FA324621461A4892
S31508001FE0FFF75AFF424621461848FFF755FF0123D7
S31508001FF0174AA340C2F8203421463A46154802B08B
S31508002000BDE8F047FFF748BF40F2FF73BFE70F236D
S31508002010BDE740F2FF33BAE7A4F1080A4FEA8A0A95
S3150800202001FA0AF10C4809FA0AF2019102F0AAFA31
S3150800203001990A4805FA0AF2CDE700BFD348000815
S3150800204000C4035008C4035010C4035014C40350FA
S3150800205000E0035024C4035004C403500CC40350C6
S315080020602DE9F0410D46174698460446002835D016
S31508002070012836D0022836D0032803D13F23EB4067
S31508002080DB0704D44FF4B0711D4802F07BF937B171
S3150800209029462046B8F1000F28D0FFF715FF0F2173
S315080020A0072D04EB440688BFA5F108034FEA061678
S315080020B0144895BFAB009B0004360C3607FA03F2AA
S315080020C09940304402F05EFABFB929462046B8F175
S315080020D0000F0ED0BDE8F041FFF7F6BE40F2FF73E1
S315080020E0CDE70F23CBE740F2FF33C8E7FFF714FF2E
S315080020F0D5E7BDE8F041FFF70FBFBDE8F08100BFA7
S31508002100D348000830C00350242808B515D820281D
S315080021100AD8012819D00C2819D068B10E48B6215A
S3150800212002F030F9002007E02238022803D8DFE859
S3150800213000F010080A00012008BD3228EED106205A
S31508002140FAE70420F8E70520F6E70320F4E7072076
S31508002150F2E70220F0E700BF004900080C2810B596
S315080021600C4617D003D801280FD0204610BD2428C6
S3150800217008D82028F9D9042CF7D9F6210B4802F0FB
S3150800218001F9F2E73228F6D0EFE70229EDD940F255
S315080021900711F3E7022904D0032904D04FF48B7101
S315080021A0ECE70024E1E70124DFE700BF0049000867
S315080021B0F8B50546C2F3062702F0070479B90B28D5
S315080021C004D94FF4FC71114802F0DCF8104B44EACC
S315080021D0072444F44024063543F82540F8BD03286F
S315080021E004D940F2FD11094802F0CCF821463846D8
S315080021F0FFF7B4FF06463846FFF786FF044B46EA64
S315080022000020123543F82500E8E700BF004900081A
S3150800221000800350B2F5805F70B505460E46144639
S315080022200DD34FF40B71084802F0ACF824F0030202
S3150800223002F1A04202F5603226B9156001E0002AD3
S31508002240F4D170BD2D02F8E70049000870B50646BE
S315080022500C46154622B940F28E210C4802F092F837
S3150800226024B94FF42070FEF7B3FF04466D00013C15
S31508002270B4FBF5F4064B250213EA042304D040F216
S31508002280B321024802F07EF8F56170BD2C490008BA
S31508002290070080FF124B10B59842044604D040F25E
S315080022A04241104802F06EF8012104F58053596046
S315080022B040F6AA6341F20502636100230A48A36057
S315080022C0E365E26004F500522361E361E364906428
S315080022D00348A365844204BF23656365516010BD46
S315080022E000C005502C490008FFFF010038B52D4BEA
S315080022F0044698420D4604D040F269312A4802F055
S3150800230041F82046FFF7C6FF0122A97B04F5805352
S315080023105A602A8AA368002914BF4FF480610021F5
S3150800232042F0010213432A7D0B43002A14BF4FF0E3
S3150800233000520022A360A3681343A360AB7C5BB181
S31508002340184B9C4202BFEA7CA3F51033C3F8D4218C
S31508002350E36D43F08003E3652B7B2046D5E9011244
S3150800236043F48053E360FFF771FF6B7B0BB11023D7
S3150800237063616B7D1BB1A36843F48033A360AB7DB7
S315080023801BB1A36843F40043A360EB7D2A7E1B07B9
S31508002390120503F0E04302F4E0021343A3652B7829
S315080023A0636138BD00C005502C490008054B9A6882
S315080023B09107FCD45A689207F9D4DA69002AF6D14B
S315080023C0704700BF00800A5008B5FFF7EFFF0122EB
S315080023D0024B03F580514A601A6108BD00800A5015
S315080023E0074B5A68012A0AD15A68D20702D5DA6910
S315080023F0002AF9D102221A610122024B5A6070475B
S3150800240000800A5000A00A5010B5064CFFF7CEFF10
S315080024106368012B03D1FFF7E3FFFFF7C7FF0378D4
S31508002420E36010BD00800A5018B17121104801F010
S31508002430A9BF4A680B7812B1127843EAC2034A78F0
S31508002440002A14BF0222002213438A6812B11278A6
S3150800245043EA82138A78002A14BF0422002213430F
S31508002460CA6812B1127843EA4223024A9364704753
S315080024705A49000800800A5020B14FF48271034877
S3150800248001F080BF024B5964704700BF5A490008E3
S3150800249000900A5020B14FF4A071034801F072BFB2
S315080024A0024B5964704700BF5A49000800A00A50F9
S315080024B020B14FF4BE71034801F064BF024B1964A2
S315080024C0704700BF5A49000800A00A5008B530B145
S315080024D0044840F2B71101F055FF002008BD024B31
S315080024E0186CFBE75A49000800800A5008B548B13D
S315080024F0084840F2662101F045FF002008BD064B5A
S31508002500D86CFBE70029FAD00129F7D1024B186DE0
S31508002510F4E700BF5A49000800800A5050B14FF44A
S315080025204171074801F02EBF064BDA647047054B28
S315080025301A6570470029F7D00129F8D0704700BFFF
S315080025405A49000800800A5007B5094B18689A8846
S315080025509B7900906846ADF804208DF80630FFF7A1
S315080025602BFC0620FFF760FC002003B05DF804FB97
S315080025709649000813B50024064A6846536F43F087
S315080025800103536700948DF80440FFF73BFB204690
S3150800259002B010BD0040005030B58BB06C46174DE8
S315080025A00FCD0FC40FCD0FC495E8030084E80300D0
S315080025B0134BD3F84C21120318D4D3F85041E4B284
S315080025C08DF81940FFF7ACF9204480F308008DF820
S315080025D018000C48FEF798F86846FFF783F84FF49A
S315080025E0FA70FFF70BFA00200BB030BD064B1C88BB
S315080025F04FF6FF739C4208BF6A24E1E7A04900082A
S315080026000080E00FC01753020001E00F30B5084DF7
S3150800261087B001AC0FCD0FC42B6801A82360FFF764
S3150800262085F96420FFF7E4F9002007B030BD00BF44
S31508002630C84900086FF00402502110B50A480B4C2F
S3150800264012F0800FD3B21BBF03F00F03043BA3188D
S315080026501B1802F101020CBF83F8001319764C2AE5
S31508002660EED1002010BD00BF00ED00E000E100E063
S3150800267038B500F031FE0446E0B900F0F1FE4FF43B
S31508002680167343430C4803F5742303F23F23B3FB45
S31508002690F0F30A4A0A4913600A220D680948013A02
S315080026A012F0FF0240F8043BF9D103EBC3022B44B6
S315080026B013440B60204638BD40420F003C130020EF
S315080026C00C13002010130020012208B5034B1A70C2
S315080026D001F0A7FF024B186008BD00BF9513002044
S315080026E0381300200122024B1A70024B18607047FB
S315080026F09613002008130020F8B5234D234C2A789A
S31508002700237812B9002B34D1F8BD23B100232B70DE
S3150800271038E02B784BB301F084FF1D4B1B68C01AB9
S315080027201C4B1D4F18601B4B1C481968DFF878C0F6
S31508002730012938BF01211960037857F8232047F883
S315080027402310561A0A21DCF800200133921BCCF814
S3150800275000200932B2FBF1F2114EDBB23260B3FB54
S31508002760F1F201FB12330370D0E701F05AFF336828
S31508002770D5E701F056FF0B4E3368984201D9002B76
S31508002780C7D100232370BFE79513002096130020B6
S31508002790381300200413002010130020971300207C
S315080027A03C130020081300200C130020014B186866
S315080027B0704700BF3C13002020234FF480120421E9
S315080027C010B50F4C0F4884F82D330F4B5A660F4B34
S315080027D003F5005250675167106711674FF40052AE
S315080027E0C4F88421626003F58052506751679A6A7B
S315080027F022F000729A629A6A42F410629A6210BDD6
S3150800280000E100E0010000A0009000500040005ADE
S31508002810044B9A6D12F0050F02D10028F9D17047C2
S31508002820012070470040005A164B10B51C6F14F073
S31508002830040211D003F500531A6708229A62FFF7BB
S315080028405BFF00F001FB00F0E1FA012000F020FF39
S3150800285004210020FFF72CFEE30706D501220A4BC8
S315080028601A67FFF749FF00F0D1FA14F000521CBFAF
S31508002870054B1A67002CBEBF4FF00042024B1A6781
S3150800288010BD00BF0040005A0060005A054B1A7878
S315080028902AB95B78002B14BF022003207047012059
S315080028A0704700BFA01300200329F8B505460E4659
S315080028B007D8174B5C5C032D19D8DFE805F0090F1C
S315080028C0121540F23331134801F05CFD0024F2E79B
S315080028D044F00204104B1F687FB9F8BD44F00804A1
S315080028E0F8E744F02004F5E744F08004F2E74FF4F3
S315080028F05271084801F046FDECE77B681A681442F5
S3150800290003D0314628465B6898473F68E4E700BF2E
S31508002910224A0008DC4900086413002038B5104D27
S315080029202B78ABB10F4C23781BB100F07DFB00234D
S315080029302370002000F09CFB0B4C50B100F0A2FB6A
S315080029400023012120782B70FFF7AEFF01232370A7
S3150800295038BD0122054B1A702278054B1A70F7E725
S315080029609F1300209A130020981300209E1300201E
S31508002970A513002010B501F0EFFD064B04461B78A1
S315080029801BB1BDE8104001F0EBBDFFF7C7FF2046BD
S31508002990F7E700BF9913002038B5134D04462B7886
S315080029A0FF2B05D160B140F2C731104801F0EAFCAF
S315080029B02B782BB924B940F2C9310C4801F0E2FC56
S315080029C0002C14BF0122FF222B7813442B700AD047
S315080029D0074B1B78012B06D9064B1B781BB9BDE89C
S315080029E03840FFF79BBF38BDA0130020DC4900081C
S315080029F0981300209E13002070B501F0ADFD124E0D
S31508002A00054633789BB900F067FC044620B1284692
S31508002A1001F0A6FD204670BD0C4801F0B4FC00F09C
S31508002A2019FF0B4B1C6000F01BFD0A4B186000F0E9
S31508002A303FFA01F0D5FD084B00241860012328460B
S31508002A40337001F08DFDE5E79B1300206413002029
S31508002A506C13002068130020601300202DE9F34151
S31508002A60441EE3B2012B0D4604D94FF4CA7131480E
S31508002A7001F088FC304E335DFF2B05D165B140F27D
S31508002A8097112C4801F07EFC335D2BB925B940F22D
S31508002A909911284801F076FC002D14BF0122FF2267
S31508002AA0335D134433553AD0244E3178012936D94B
S31508002AB0FFF7ECFE0128044634D8214F01F04CFDFF
S31508002AC03B781BB31F4D2B781BB901222A701E4A6F
S31508002AD01370DFF8788098F8003033B1019000F071
S31508002AE0A3FA0023019888F8003001F039FD012087
S31508002AF000F0BEFA01F030FD2B782BB1019000F002
S31508002B00C1FA002301982B7000233B7001F028FDC1
S31508002B103078A04203D02146FFF7C6FE347002B0D3
S31508002B20BDE8F0810329F3D10228F1D101F05CFD5B
S31508002B30EEE700BFDC490008A01300209813002028
S31508002B409F130020991300209E1300209A1300203B
S31508002B5068B501F001FD094B06461B78012B04D820
S31508002B6001F0FEFC0025284668BD054B1D6800F0EF
S31508002B70C3FA0544304601F0F3FCF4E79813002045
S31508002B806C13002038B54160044601F0E5FC0546A3
S31508002B9021460448FDF714FE2846BDE8384001F0F2
S31508002BA0DFBC00BF64130020054B1B685843054B68
S31508002BB000F5742000F23F20B0FBF3F0704700BF29
S31508002BC06813002040420F002DE9FF47EFF31086F7
S31508002BD072B600E000BF01F08BFB002800F0A88069
S31508002BE0744D754F2B7823B10020FFF7D5FE0023CF
S31508002BF02B70FFF74BFE012812D00AD90238C0B253
S31508002C00012840F29C804FF46C716C4801F0BAFBC5
S31508002C1006E02B7823B10020FFF7BEFE00232B70B9
S31508002C20FFF734FE0128804604D9654B1B780BB99B
S31508002C3001F0D4FC634CDFF8AC912078DFF8A8A14A
S31508002C4040450AD0002389F800309AF8003013B9B5
S31508002C504146FFF729FE84F8008099F800303BB119
S31508002C602378022B04D1002389F8003000E000BF46
S31508002C70B8F1010F0FD9DFF8488198F8003053B939
S31508002C80514B1B7823B900F0C9F901224F4B1A7032
S31508002C90012388F80030207800F012FA9AF80030FC
S31508002CA013B14B4B1B78237000E000BF06B962B620
S31508002CB0EFF3108672B6474B1A7852B100221A7093
S31508002CC0434B20781B78984203D101212170FFF7E6
S31508002CD0EBFD384600F03AFB01F00EFB8046002873
S31508002CE080D189F80000DFF8D89099F8003093B1C0
S31508002CF0364F8AF800003B781BB100F095F987F843
S31508002D000080002000F0B4F9002849D000F0BAF994
S31508002D10002389F800302B7823B10020FFF73CFE0A
S31508002D2000232B7000212078FFF7BEFD00232370B7
S31508002D3000E000BF06B962B604B0BDE8F08700201F
S31508002D4003A900F047FB00287FF46AAF224B039AD9
S31508002D501B689A4204D80120FFF71EFE01235EE78E
S31508002D601E4B1C6800F0C8F9241804D540F29931A6
S31508002D70124801F007FB039B9C42ECD200F0CCF909
S31508002D8000280CBF0023042343F002030193002309
S31508002D9003993846124A0093091B01F026FC3FE7BF
S31508002DA0012000F08DF906B962B6EFF3108672B607
S31508002DB0A7E700BFA413002040130020DC49000841
S31508002DC09F13002098130020A31300209A130020B5
S31508002DD0A51300209D130020601300206C1300200B
S31508002DE075290008A21300209E13002010B501F0D3
S31508002DF0B3FB0022044B1C781A7001F0B1FB00F0FB
S31508002E003BFC2043C0B210BD9C13002010B5094BF3
S31508002E101B786BB1084C237853B100F033F90023C3
S31508002E20064A237013700123054A1370054A137066
S31508002E3010BD00BF981300209E1300209F1300208A
S31508002E409C1300209D130020034B1B7813B101220D
S31508002E50024B1A70704700BF981300209E1300207B
S31508002E6073B5114E04463378834212D000238DF889
S31508002E70043080B102238DF8053001A8FEF78AFEDA
S31508002E800A4D402054B1FFF78FFE2B68181A2860A8
S31508002E90347002B070BD8DF80500EEE7FFF784FECA
S31508002EA02B681844F3E700BF9B100020741300201A
S31508002EB073B5002401A88DF80440FEF71DFF2046CF
S31508002EC0FFF7CEFF4FF480102F4B30491A6F02F0F0
S31508002ED007020A602E49D3F8203148664FF40030BD
S31508002EE0486601F598318969032A01F0020137D04D
S31508002EF003F00703981E434243412648264D0370B4
S31508002F00002939D0204A3BB9D2F8003103F003032F
S31508002F10591E4B424B410370D2F8003103F00303AC
S31508002F20022B1FD0032B20D0012B21D1FDF7E6FB66
S31508002F3010B31A4B411EDC680023024608461946A0
S31508002F40C4F30B04164E013404EB8404E4FB0601B7
S31508002F5000F0DEFFFFF728FE2B68184428600BE018
S31508002F600123CAE7FDF726FCE2E701F003FADFE7EB
S31508002F70EC210C4801F006FA1F20FFF715FE2B6816
S31508002F801844286002B070BD0080005070130020FD
S31508002F9000900050A81300207413002000C00150B0
S31508002FA040420F00264A0008074B1A7852B1002201
S31508002FB01A70064A136F23F0070343F001031367D9
S31508002FC0FDF786BB704700BFA6130020008000509F
S31508002FD008B50E4B1B788BB1022001F03BFB68B19C
S31508002FE000F02AFA50B10A4B9A6DD20307D5DB6D69
S31508002FF09B0704D54FF48032064B9A6208BD01221E
S31508003000054B1A70FFF760FBF4E700BFA813002012
S315080030100040005A0050005AA71300200122014B15
S315080030201A707047A613002038B50D4B1B7873B17C
S315080030300C4C23788BB90C4B0C4D9A6D12F4803FCF
S3150800304006D0DB6D9B0703D54FF48033AB6238BDE2
S31508003050FFF73AFB4FF48033AB6200232370F6E7A1
S31508003060A8130020A71300200040005A0050005A59
S31508003070034B1B780BB1FFF7CBBB0120704700BF92
S31508003080A813002008B501F07AFA094A0949136F0E
S31508003090096823F007030B431367074B1B781BB11B
S315080030A04FF48032054B9A62BDE80840FDF710BB25
S315080030B00080005070130020A81300200060005AFA
S315080030C002280AD003280BD001280CD1084A136914
S315080030D023F00403136130BF70470020FEF766BD76
S315080030E00020FEF77BBD40F20D21024801F04AB9E7
S315080030F000ED00E0264A000808B5054B187818B117
S31508003100FFF754FB00EBD000024B1B68184408BDC0
S31508003110A813002074130020014B1878704700BFCD
S31508003120A813002010B500F00BFB0A4C0A4B1968CF
S315080031302368C31A01B10BB9206010BD4A699A42C7
S315080031403ABF9B1A0022D21A4A6128BF002389680F
S31508003150F0E700BF7813002084130020C38870B5F9
S3150800316004460D463BB9FFF7F3FC8542064602D2F4
S3150800317001F028FA35460F4965610B68ABB90C6052
S31508003180A36011E0AD1A9A68184665612AB113461C
S315080031905A69AA42F6D950B11A4613468460A36002
S315080031A013B15969491B596170BD0020F0E70C60DD
S315080031B0F5E700BF8413002038B5134D2B685B690B
S315080031C093B1124A022014681C4401F03AFA2046C8
S315080031D000F0EAFA00230E492A680B70D0888007A7
S315080031E009D501230B7038BD022001F02AFA022006
S315080031F000F028FBEEE79268002AF4D050690344F1
S31508003200012BEBD9EFE700BF8413002078130020C9
S31508003210AA130020F8B516469DF81C20BDF82070A4
S315080032200271069A0446026000220D46C0E903367A
S315080032308260C780C6B900F083FA2844A0613DB908
S31508003240E368656113B120462168984756B135464B
S31508003250062F0DD1104A2846936A43F00803936255
S3150800326000F076FA0020F8BD00F06AFA3044E5E787
S3150800327001F072F90646FFF755FF29462046FFF783
S315080032806DFF064B1B68A34201D1FFF795FF304639
S3150800329001F066F9E6E700BF0040005A84130020F3
S315080032A000220C490B687BB183420AD183687AB144
S315080032B0936083681BB15A6941690A445A610020C0
S315080032C070471A469B68EEE70028EFD00220704741
S315080032D00B60EEE78413002070B501F044F9144E34
S315080032E005463478FCB9134B1C60134B1C60134B12
S315080032F01C8000F0DDF9012001F0A3F901F0D5F9F1
S315080033000F4B0246186020B9284601F032F92320EF
S3150800331070BD234640F2E7310A4800F0F9FD0A4B32
S31508003320186001233370284601F023F90020EFE7DF
S31508003330A91300208413002078130020901300207E
S315080033408013002018FCFFFF7C1300202DE9F041B4
S315080033500546F8B101F000F90F4F0646FFF7E2FE01
S315080033602846D7F80080FFF79BFF044628B1304669
S3150800337001F0F6F82046BDE8F081A8453B6803D180
S3150800338023B1FFF719FFF2E7002BF0D1022000F076
S3150800339043FAECE72224EDE78413002038B50C46FF
S315080033A0054698B191B100230B7001F0DCF80121B4
S315080033B0074B1B680BB122781AB101F0DAF8002026
S315080033C038BDAB4214BF9B682170F3E72220F7E7AC
S315080033D0841300202DE9F0410746884601F0C3F81A
S315080033E000260546124B1C6824B9284601F0C1F888
S315080033F01B2016E063691E44E388BB4215D100F022
S315080034009FF90C4C2368C01AB0420CD200F098F908
S3150800341022683244121A2846C8F8002001F0A9F892
S315080034200020BDE8F0810022F5E7A468DCE700BFCC
S31508003430841300207813002008B5074B187848B184
S3150800344001F0EFF8054B1B689B69C01A02288CBF70
S315080034500020012008BD00BFAA1300208413002005
S31508003460014B1868704700BF801300200C4B70B5DD
S315080034701B680D46834211D340F2E73100248C467F
S315080034802146084B4FF47A721E680023E0FB06C1FA
S31508003490604600F03DFD2860204670BD2120FCE70F
S315080034A07C13002080130020F0B51F46002387B048
S315080034B00C46164605468DF8133058B30DF1130120
S315080034C0FFF76CFF9DF8133033BB204605A9FFF7BD
S315080034D0CDFFE8B9114B059A19684C434FF47A7138
S315080034E0B4FBF1F301FB134400230C1BEB83A4B2DA
S315080034F0BDF834308C420CBFA883AC8302939DF888
S3150800350030301146CDE9007328463346FFF782FE70
S3150800351007B0F0BD2220FBE70220F9E78013002060
S31508003520C2072DE9F84F04460BD54F4A13880133D5
S315080035309BB21380FFF7F6FD4C4B1B680BB1FFF7E8
S315080035403BFEA30740F18E8001F00DF84FF0000A0C
S3150800355005465646FFF7E6FDD046444FDFF8149178
S315080035603C680CB163698BB10022414B012E1A707D
S3150800357003D11AF0020F18BF1E70002C62D0FFF795
S315080035801BFE2846BDE8F84F00F0F3BF23461A791C
S315080035902179914288BF1C469B6813B15A69002A53
S315080035A0F5D0284600F0E5FFD4F810A0BAF1000FD0
S315080035B04CD000F0C5F8A269851AEB17AA4578EB36
S315080035C0030344DA236913440122A36123691BB365
S315080035D012BBEB17BAEB050563EB4303002B04DAC2
S315080035E040F22151484600F0CDFEA38B33B1E28B61
S315080035F013449BB2B3F57A7F1CD2E38300F0B3FF82
S31508003600824629462046FFF7A9FDA3692269504646
S315080036101344A36100F0ADFFE368B4F806A00136D1
S3150800362013B120462168984700F09DFF0546FFF72D
S3150800363079FD95E7A3F57A73E383A369013D013B19
S31508003640A361DBE7022000F0E7F89AE7554600F0A9
S315080036508AFF83462046FFF723FE584600F089FF77
S315080036600022B3E7BDE8F88F9013002084130020EA
S31508003670AB130020734A000810B500F074FF034B23
S315080036801C7800F076FF204610BD00BFAB13002063
S31508003690014B1870704700BFAB130020034B5A68E4
S315080036A0D20702D5DA69002AF9D1704700800A5094
S315080036B030B501250024042387B029463E208DF81D
S315080036C00430CDE903448DF80040ADF808508DF874
S315080036D00A400594FDF750FD6846FEF795FE01ABD6
S315080036E0204602A90493ADF80840FEF79DFE204641
S315080036F00F21FEF7CFFE0F212046FEF7D9FEFEF773
S3150800370063FEFFF7CBFF40220B4B9C610B4BC3F8C4
S3150800371088219A603B202946FDF72EFD214628463A
S3150800372040F60172FEF744FD4FF49C722146284686
S31508003730FEF770FD07B030BD00800A5000E100E0DA
S3150800374008B5FFF7ABFF014B986908BD00800A5022
S3150800375038B5044600F000FF0546FFF79FFF104BFB
S31508003760022C9A698CBFA418D41C2046FEF7BAFF0F
S31508003770B4F1FF3F2CBF2246621E01210020FEF74E
S31508003780CDFE284600F0ECFE064A137833B104490C
S315080037908B6C43F002038B640023137038BD00BFA3
S315080037A000800A509C100020F8B5044600F0D4FEAC
S315080037B0FFF774FF164B07469D6900F03EFF064665
S315080037C00020FEF783FE830704D4731B032B01D85E
S315080037D0AE420FD10021631B022B98BFEC1C084692
S315080037E0B4F1FF3F2CBF2246621EFEF797FE022069
S315080037F000F027FF384600F0B3FE064A137833B1C7
S3150800380003498B6C43F001038B6400231370F8BDE6
S3150800381000800A509D100020830700F0010109D599
S315080038200122064B41F002011A70054A936C23F0F7
S31508003830010393640020FEF72DBE00BF9D100020F3
S3150800384000800A50830742BF0222014B1A64704760
S3150800385000900A500A4B10B5D3F8403203F0030320
S31508003860013B012B0BD800F077FE0446012102200C
S31508003870FFF7F4F82046BDE8104000F071BE10BD11
S315080038800080005010B50446FCF722FF4FF47A7208
S315080038909042B0FBF2F105D23621BDE810400C4843
S315080038A000F070BD0B4BB3FBF1F30B49884201D90D
S315080038B03C21F2E702FB04F0B0FBF3F0022806D93C
S315080038C0BDE810400323B0FBF3F0FCF751BC10BD74
S315080038D0B34A000840420F00E7CD9A3B08B500F00E
S315080038E0E7FE06490648FFF74DF900F0DBFC00F055
S315080038F0ECFE00F0D9FCFFF767F9F8E7181000208E
S315080039008813002070B54FF0FF0C4CF4E06C1CEAED
S3150800391011541DBF1CEA135594EA0C0F95EA0C0FB7
S3150800392000F0DEF82C4481EA030621EA4C5123EA2A
S315080039304C5350EA013518BF52EA033541F4801159
S3150800394043F4801338D0A0FB02CE4FF00005E1FB0C
S3150800395002E506F00042E0FB03E54FF00006E1FB56
S3150800396003569CF0000F18BF4EF0010EA4F1FF0499
S31508003970B6F5007F64F5407404D25FEA4E0E6D41D9
S3150800398046EB060642EAC62141EA55514FEAC520EA
S3150800399040EA5E504FEACE2EB4F1FD0C88BFBCF566
S315080039A0E06F1ED8BEF1004F08BF5FEA500E50F117
S315080039B0000041EB045170BD06F0004646EA0101DD
S315080039C040EA020081EA0301B4EB5C04C2BFD4EB0F
S315080039D00C0541EA045170BD41F480114FF0000E08
S315080039E0013C00F3AB8014F1360FDEBF002001F076
S315080039F0004170BDC4F10004203C35DA0C341BDCF0
S31508003A0004F11404C4F1200500FA05F320FA04F0C1
S31508003A1001FA05F240EA020001F0004221F00041F5
S31508003A2010EBD37021FA04F642EB06015EEA430E68
S31508003A3008BF20EAD37070BDC4F10C04C4F1200598
S31508003A4000FA04F320FA05F001FA04F240EA02004B
S31508003A5001F0004110EBD37041F100015EEA430E1C
S31508003A6008BF20EAD37070BDC4F1200500FA05F23C
S31508003A704EEA020E20FA04F301FA05F243EA0203BB
S31508003A8021FA04F001F0004121FA04F220EA0200CA
S31508003A9000EBD3705EEA430E08BF20EAD37070BD10
S31508003AA094F0000F0FD101F00046400041EB0101F0
S31508003AB011F4801F08BF013CF7D041EA060195F0D2
S31508003AC0000F18BF704703F00046520043EB03038C
S31508003AD013F4801F08BF013DF7D043EA0603704779
S31508003AE094EA0C0F0CEA135518BF95EA0C0F0CD084
S31508003AF050EA410618BF52EA4306D1D181EA0301CA
S31508003B0001F000414FF0000070BD50EA410606BFC3
S31508003B101046194652EA430619D094EA0C0F02D108
S31508003B2050EA013613D195EA0C0F05D152EA03364D
S31508003B301CBF104619460AD181EA030101F000416B
S31508003B4041F0FE4141F470014FF0000070BD41F0B4
S31508003B50FE4141F4780170BD81F0004102E000BFEA
S31508003B6083F0004330B54FEA41044FEA430594EA2F
S31508003B70050F08BF90EA020F1FBF54EA000C55EA6A
S31508003B80020C7FEA645C7FEA655C00F0E2804FEA3B
S31508003B905454D4EB5555B8BF6D420CDD2C4480EA1D
S31508003BA0020281EA030382EA000083EA010180EA4D
S31508003BB0020281EA0303362D88BF30BD11F0004F9B
S31508003BC04FEA01314FF4801C4CEA113102D04042D1
S31508003BD061EB410113F0004F4FEA03334CEA13330C
S31508003BE002D0524263EB430394EA050F00F0A78024
S31508003BF0A4F10104D5F1200E0DDB02FA0EFC22FA1F
S31508003C0005F2801841F1000103FA0EF2801843FA12
S31508003C1005F359410EE0A5F120050EF1200E012A03
S31508003C2003FA0EFC28BF4CF0020C43FA05F3C01841
S31508003C3051EBE37101F0004507D54FF0000EDCF1BA
S31508003C40000C7EEB00006EEB0101B1F5801F1BD363
S31508003C50B1F5001F0CD349085FEA30004FEA3C0C67
S31508003C6004F101044FEA445212F5800F80F09A805D
S31508003C70BCF1004F08BF5FEA500C50F1000041EB61
S31508003C80045141EA050130BD5FEA4C0C404141EB65
S31508003C900101013C28BFB1F5801FE9D291F0000F60
S31508003CA004BF01460020B1FA81F308BF2033A3F10F
S31508003CB00B03B3F120020CDA0C3208DD02F1140C06
S31508003CC0C2F10C0201FA0CF021FA02F10CE002F141
S31508003CD01402D8BFC2F1200C01FA02F120FA0CFC3A
S31508003CE0DCBF41EA0C019040E41AA2BF01EB045183
S31508003CF0294330BD6FEA04041F3C1CDA0C340EDC81
S31508003D0004F11404C4F1200220FA04F001FA02F3C3
S31508003D1040EA030021FA04F345EA030130BDC4F181
S31508003D200C04C4F1200220FA02F001FA04F340EA76
S31508003D300300294630BD21FA04F0294630BD94F027
S31508003D40000F83F4801306BF81F480110134013D0E
S31508003D504EE77FEA645C18BF7FEA655C29D094EA7F
S31508003D60050F08BF90EA020F05D054EA000C04BFFD
S31508003D701946104630BD91EA030F1EBF00210020E8
S31508003D8030BD5FEA545C05D14000494128BF41F087
S31508003D90004130BD14F580043CBF01F5801130BDEB
S31508003DA001F0004545F0FE4141F470014FF0000076
S31508003DB030BD7FEA645C1ABF194610467FEA655C27
S31508003DC01CBF0B46024650EA013406BF52EA0335C9
S31508003DD091EA030F41F4002130BD00BF90F0000FB7
S31508003DE004BF0021704730B54FF4806404F13204F3
S31508003DF04FF000054FF0000150E700BF90F0000FAC
S31508003E0004BF0021704730B54FF4806404F13204D2
S31508003E1010F0004548BF40424FF000013EE700BFA2
S31508003E2042004FEAE2014FEA31014FEA02701FBF32
S31508003E3012F07F4393F07F4F81F06051704732F064
S31508003E407F4208BF704793F07F4F04BF41F40021BB
S31508003E50704730B54FF4607401F0004521F0004119
S31508003E601CE700BF50EA010208BF704730B54FF0A3
S31508003E7000050AE050EA010208BF704730B511F0A4
S31508003E80004502D5404261EB41014FF4806404F1DC
S31508003E9032045FEA915C3FF4D8AE4FF003025FEA62
S31508003EA0DC0C18BF03325FEADC0C18BF033202EBE6
S31508003EB0DC02C2F1200300FA03FC20FA02F001FA40
S31508003EC003FE40EA0E0021FA02F11444BDE600BFE3
S31508003ED04A0011D212F5001211D20DD56FF478737B
S31508003EE0B3EB62520ED44FEAC12343F0004343EAD0
S31508003EF0505323FA02F070474FF00000704750EA1B
S31508003F00013002D14FF0FF3070474FF00000704784
S31508003F1053B94AB9002908BF00281CBF4FF0FF3122
S31508003F204FF0FF3000F082B9ADF1080C6DE904CE10
S31508003F3000F006F8DDF804E0DDE9022304B0704776
S31508003F402DE9F04F099D04460F46002B48D18A42B9
S31508003F50944661D9B2FA82F343B1C3F120019F4076
S31508003F6002FA03FC9C4020FA01F10F434FEA1C4178
S31508003F701FFA8CFE220CB7FBF1F601FB167706FB3F
S31508003F800EF042EA0742904208D91CEB020206F1FB
S31508003F90FF3702D2904200F237813E46121AA4B287
S31508003FA0B2FBF1F001FB102200FB0EFE44EA0244CC
S31508003FB0A64508D91CEB040400F1FF3202D2A64537
S31508003FC000F21C81104640EA0640A4EB0E040026C7
S31508003FD01DB1DC400023C5E900433146BDE8F08F3A
S31508003FE08B4209D9002D00F0FD800026C5E90001A5
S31508003FF030463146BDE8F08FB3FA83F6002E4BD132
S315080040008B42C0F0F280824240F2EF803046002DAB
S31508004010E3D0C5E90047E0E702B9FFDEB2FA82F36A
S31508004020002B40F09D80891A4FEA124E97B201265E
S31508004030200CB1FBFEF20EFB121140EA014107FB10
S3150800404002F088420FD91CEB010102F1FF382CBFA0
S315080040504FF001094FF00009884203D9B9F1000F62
S3150800406000F0CF804246091AA4B2B1FBFEF00EFB5F
S31508004070101100FB07F744EA0144A74208D91CEBD4
S31508004080040400F1FF3102D2A74200F2B4800846C8
S31508004090E41B40EA02409BE7C6F12007B34001FA59
S315080040A006F422FA07FCF940B2404CEA030C20FA5F
S315080040B007F34FEA1C491C431FFA8CFE00FA06F365
S315080040C0200CB1FBF9F809FB181140EA014108FB7D
S315080040D00EF088420FD91CEB010108F1FF3A2CBFFC
S315080040E04FF0010B4FF0000B884203D9BBF1000FCC
S315080040F000F08D80D046091AA4B2B1FBF9F009FB8D
S31508004100101100FB0EFE44EA01418E4507D91CEB4F
S31508004110010100F1FF3401D28E457FD8204640EADE
S315080041200840A1EB0E01A0FB029841454C46C64645
S3150800413002D306D14B4504D20138B9EB020468EB29
S315080041400C0E002D70D01A1B61EB0E0122FA06F335
S3150800415001FA07F7F14000261F43C5E900713CE75D
S3150800416002FA03FCC3F1200001FA03F221FA00F671
S315080041704FEA1C4E24FA00F11FFA8CF79C401143B3
S31508004180B6FBFEF00A0C0EFB106642EA064200FB7E
S3150800419007F696420ED91CEB020200F1FF382CBF37
S315080041A04FF001094FF00009964202D9B9F1000F04
S315080041B031D04046921B89B2B2FBFEF60EFB1622A0
S315080041C041EA024106FB07F28A4207D91CEB0101C4
S315080041D006F1FF3801D28A4223D84646891A46EAAA
S315080041E0004625E72E462846F7E6841A61EB0303C0
S315080041F001201F460BE76444023849E76444023845
S31508004200E1E6023A61442EE7023E6244C6E6A8F1B8
S31508004210020861446FE702386244CBE7023861441A
S315080042207DE7023E6144D9E72E46D6E6704700BFD1
S3150800423008B5074B044613B1002100E000BF054B43
S315080042401868836A03B19847204600F029F800BF2A
S3150800425000000000EC4A000870B50D4D00260D4C14
S31508004260641BA410A64209D10B4D00260B4C00F086
S3150800427041FA641BA410A64205D170BD55F8043B4B
S3150800428001369847EEE755F8043B01369847F2E7BA
S31508004290A0100020A0100020A0100020A4100020CC
S315080042A0FEE700BFFCF7AEB8FCF792B800F040B8DE
S315080042B008B5FCF7F5FAFCF713FCFCF761F8FCF710
S315080042C06DF8BDE8084000F04BB808B500F02EF8C8
S315080042D0FFF702F8BDE80840FEF7CAB9704770470D
S315080042E07047704770477047012070470120704734
S315080042F008B5FFF7F9FF08BD10B5FEF777FD0446C8
S31508004300FFF7F4FF042804D0022808BF012420463A
S3150800431010BD0024FBE700234FF0010C07B5CDE9DB
S31508004320003CFFF7C1F803B05DF804FB0F207047A7
S3150800433008B50023042219460120FDF791FE002046
S3150800434008BD08B501213A20FCF716FFFFF7AEFFB6
S31508004350BDE80840FCF7ACB801213A20FCF70CBFD1
S3150800436008B5082000F07DF8BDE80840082000F0F0
S3150800437084B8FEE7002070474FF4004070474FF4BA
S315080043807A707047FEE7002303607047436803B1FD
S31508004390184722207047436903B11847FF20704722
S315080043A038B50D680C462B78022B0CD0697928791C
S315080043B0FCF716FAB0FA80F0400928702046BDE8E6
S315080043C03840FCF73BB838BD03681878704710B515
S315080043D004682378022B15D061792079FCF700FA56
S315080043E0A279012A15D1003818BF01204FF6E071CD
S315080043F0638840EA430363F03F039BB28B4202D1D2
S315080044002270638010BD4FF6DF729342F9D1002205
S31508004410F6E7002AF6D1B0FA80F040092070F1E7F5
S3150800442003681A78022A03D100225A80FCF702BAD6
S31508004430704713B504682378022B10D0A379022B92
S315080044400BD100216079FCF763FB002362792079A0
S315080044501146CDE90033FDF787FD0223237002B02C
S3150800446010BD4FF060420123D2F8001E03FA00F097
S315080044700843C2F8000E002070474FF06041012241
S31508004480D1F8003E02FA00F023EA0003C1F8003E24
S3150800449000207047D0E900031847036900681847E9
S315080044A010B5044601213A20FCF766FEA378207869
S315080044B0B3FA83F3042261785B09FDF7D1FD002086
S315080044C010BD034659789B7800780BB9FCF748BAB3
S315080044D0FCF76EBA034659789B7800780BB9FCF757
S315080044E067BAFCF73DBA70B5054614460E4600F0A5
S315080044F033F8296881EA040202EA06044C402C6073
S31508004500BDE8704000F02CB808B5FCF7F3F8BDE834
S3150800451008400021FCF704BE0029CCBF0121002178
S31508004520FCF7FEBD02214FF42070FDF76DBA10B5F9
S31508004530FCF7CEF80446FCF74DFBC0F10201204615
S31508004540FFF7EAFF01210020FDF7BEFBFDF7EEFAB3
S31508004550BDE81040FCF774BFEFF3108072B67047E1
S3150800456000B962B67047EFF31180302383F31188E0
S31508004570704780F3118870477047704770477047D7
S315080045807047704770B5054614460E46FFF7E4FFB8
S31508004590296881EA040202EA06044C402C60BDE858
S315080045A07040FFF7DDBF704783695A06FCD5C163C3
S315080045B083699B06FCD5406AC0B27047FEF7FCB813
S315080045C0FEF732B907B5FFF7C7FF0190FEF7A6F960
S315080045D0019803B05DF804EBFFF7C2BFFFF7CEBF43
S315080045E04FF4C870FEF7E0BA7047F0B587B01546C5
S315080045F01E460446059190B10027C761FEF7A6FE40
S31508004600BDF834303A4602939DF830302046CDE95D
S31508004610006305992B46FEF7FDFD07B0F0BD222085
S31508004620FBE738B5FFF79FFF0546FFF789F804460D
S315080046302846FFF79EFF204638BD00210846FDF7AD
S3150800464055BF00F00101830748BF41F00201002071
S31508004650FDF712BF10B504460020FDF737FF012C01
S3150800466004D0022C05D1C0F3400010BD00F00100B3
S31508004670FBE70020F9E738B5FFF775FF0446002089
S31508004680FDF724FF830700F0010548BF45F0020542
S3150800469000F003010020FDF70BFF2846FEF740FF58
S315080046A02046BDE83840FFF764BF3E20FCF790BDC2
S315080046B008B5FBF715FEFFF7FBFDFFF706FEFFF74C
S315080046C00DFEBDE80840FFF70ABE08B5FFF708FE6D
S315080046D0FFF707FEFFF706FEBDE80840FFF703BE33
S315080046E0704702440346934200D1704703F8011B02
S315080046F0F9E70000F8B500BFF8BC08BC9E4670474D
S31508004700F8B500BFF8BC08BC9E467047801000206C
S3150800471035080008CF430008214400083344000840
S31508004720C94300088810002035080008CF43000850
S315080047302144000833440008C943000894100020A7
S31508004740A1440008C3440008D5440008010A00082B
S315080047504D0A000897100020A1440008C344000829
S31508004760D5440008010A00084D0A000805000000A3
S315080047700000000040420F00050100000000000094
S3150800478000000000000000006765636B6F5F7364DC
S315080047906B5F342E332E312F706C6174666F726DB9
S315080047A02F636F6D6D6F6E2F7372632F736C5F73EC
S315080047B06C6973742E63006765636B6F5F73646BF4
S315080047C05F342E332E312F706C6174666F726D2FC5
S315080047D0656D6C69622F696E632F656D5F677069B9
S315080047E06F2E68006765636B6F5F73646B5F342E4B
S315080047F0332E312F706C6174666F726D2F64726917
S315080048007665722F627574746F6E2F7372632F7369
S315080048106C5F73696D706C655F627574746F6E2E0C
S3150800482063006765636B6F5F73646B5F342E332E4B
S31508004830312F706C6174666F726D2F656D6C69626D
S315080048402F7372632F656D5F636D752E63006765E1
S31508004850636B6F5F73646B5F342E332E312F706C0E
S315080048606174666F726D2F656D6C69622F73726302
S315080048702F656D5F636F72652E63006765636B6F87
S315080048805F73646B5F342E332E312F706C617466E0
S315080048906F726D2F656D6C69622F7372632F656D0C
S315080048A05F656D752E63006765636B6F5F73646B19
S315080048B05F342E332E312F706C6174666F726D2FD4
S315080048C0656D6C69622F696E632F656D5F627573BE
S315080048D02E68006765636B6F5F73646B5F342E3396
S315080048E02E312F706C6174666F726D2F656D6C69F1
S315080048F0622F7372632F656D5F6770696F2E630031
S315080049006765636B6F5F73646B5F342E332E312F6D
S31508004910706C6174666F726D2F656D6C69622F734A
S3150800492072632F656D5F7072732E63006765636BC4
S315080049306F5F73646B5F342E332E312F706C617426
S31508004940666F726D2F656D6C69622F7372632F6562
S315080049506D5F75736172742E63006765636B6F5F55
S3150800496073646B5F342E332E312F706C6174666FEF
S31508004970726D2F7065726970686572616C2F7372DB
S31508004980632F7065726970686572616C5F7379739D
S315080049907274632E6300010310010109030000000D
S315080049A00B0000000C00000003000000000020209F
S315080049B000000000020000003C3C3C000000000033
S315080049C000000000000000000126000004000000AE
S315080049D00000000000010000000000006765636B2E
S315080049E06F5F73646B5F342E332E312F706C617476
S315080049F0666F726D2F736572766963652F706F7750
S31508004A0065725F6D616E616765722F7372632F736E
S31508004A106C5F706F7765725F6D616E616765722E28
S31508004A206300010410406765636B6F5F73646B5FB7
S31508004A30342E332E312F706C6174666F726D2F733E
S31508004A406572766963652F706F7765725F6D616EE3
S31508004A50616765722F7372632F736C5F706F77650A
S31508004A60725F6D616E616765725F68616C5F7332F4
S31508004A702E63006765636B6F5F73646B5F342E33F9
S31508004A802E312F706C6174666F726D2F7365727636
S31508004A906963652F736C65657074696D65722F73CC
S31508004AA072632F736C5F736C65657074696D65727C
S31508004AB02E63006765636B6F5F73646B5F342E33B9
S31508004AC02E312F706C6174666F726D2F73657276F6
S31508004AD06963652F7564656C61792F7372632F73CB
S31508004AE06C5F7564656C61792E6300002010002088
S30D08004AF0C8B6FF7F01000000B3
S31108004AF8044B0008001000202A000000F3
S31508004B04F4010000F4010000C0EA2101C0EA210111
S31508004B14C017530200800000FF000000E1460008A9
S31508004B240000000000000000000000000000000073
S31508004B340000000000000000000000000000000063
S31508004B440000000000000000000000000000000053
S31508004B540000000000000000000000000000000043
S31508004B640000000000000000000000000000000033
S31508004B740000000000000000000000000000000023
S31508004B840000000001010200000000000103020009
S31508004B94FFFFFFFF010201030301280101010000D1
S30D08004BA49D01000879010008D3
S705080005C924
